{
  "_format": "hh-sol-artifact-1",
  "contractName": "AssuredPay",
  "sourceName": "contracts/AssuredPay.sol",
  "abi": [
    {
      "inputs": [
        {
          "internalType": "address",
          "name": "_vendor",
          "type": "address"
        },
        {
          "internalType": "address",
          "name": "_customer",
          "type": "address"
        },
        {
          "internalType": "uint256",
          "name": "_amount",
          "type": "uint256"
        }
      ],
      "stateMutability": "nonpayable",
      "type": "constructor"
    },
    {
      "inputs": [],
      "name": "AssuredPay__OrderNotSet",
      "type": "error"
    },
    {
      "inputs": [],
      "name": "AssuredPay__SufficientFundNotProvided",
      "type": "error"
    },
    {
      "inputs": [],
      "name": "AssuredPay__TransactionNotCompleted",
      "type": "error"
    },
    {
      "anonymous": false,
      "inputs": [
        {
          "indexed": true,
          "internalType": "bytes32",
          "name": "id",
          "type": "bytes32"
        }
      ],
      "name": "ChainlinkCancelled",
      "type": "event"
    },
    {
      "anonymous": false,
      "inputs": [
        {
          "indexed": true,
          "internalType": "bytes32",
          "name": "id",
          "type": "bytes32"
        }
      ],
      "name": "ChainlinkFulfilled",
      "type": "event"
    },
    {
      "anonymous": false,
      "inputs": [
        {
          "indexed": true,
          "internalType": "bytes32",
          "name": "id",
          "type": "bytes32"
        }
      ],
      "name": "ChainlinkRequested",
      "type": "event"
    },
    {
      "anonymous": false,
      "inputs": [
        {
          "indexed": true,
          "internalType": "address",
          "name": "from",
          "type": "address"
        },
        {
          "indexed": true,
          "internalType": "address",
          "name": "to",
          "type": "address"
        }
      ],
      "name": "OwnershipTransferRequested",
      "type": "event"
    },
    {
      "anonymous": false,
      "inputs": [
        {
          "indexed": true,
          "internalType": "address",
          "name": "from",
          "type": "address"
        },
        {
          "indexed": true,
          "internalType": "address",
          "name": "to",
          "type": "address"
        }
      ],
      "name": "OwnershipTransferred",
      "type": "event"
    },
    {
      "inputs": [],
      "name": "ERC677_LINK_ADDRESS",
      "outputs": [
        {
          "internalType": "address",
          "name": "",
          "type": "address"
        }
      ],
      "stateMutability": "view",
      "type": "function"
    },
    {
      "inputs": [],
      "name": "acceptOwnership",
      "outputs": [],
      "stateMutability": "nonpayable",
      "type": "function"
    },
    {
      "inputs": [],
      "name": "balance",
      "outputs": [
        {
          "internalType": "uint256",
          "name": "",
          "type": "uint256"
        }
      ],
      "stateMutability": "view",
      "type": "function"
    },
    {
      "inputs": [
        {
          "internalType": "bytes32",
          "name": "_requestId",
          "type": "bytes32"
        },
        {
          "internalType": "string",
          "name": "_orderStatus",
          "type": "string"
        }
      ],
      "name": "fulfill",
      "outputs": [],
      "stateMutability": "nonpayable",
      "type": "function"
    },
    {
      "inputs": [],
      "name": "getbalance",
      "outputs": [
        {
          "internalType": "uint256",
          "name": "",
          "type": "uint256"
        }
      ],
      "stateMutability": "view",
      "type": "function"
    },
    {
      "inputs": [],
      "name": "i_amount",
      "outputs": [
        {
          "internalType": "uint256",
          "name": "",
          "type": "uint256"
        }
      ],
      "stateMutability": "view",
      "type": "function"
    },
    {
      "inputs": [],
      "name": "i_customer",
      "outputs": [
        {
          "internalType": "address payable",
          "name": "",
          "type": "address"
        }
      ],
      "stateMutability": "view",
      "type": "function"
    },
    {
      "inputs": [],
      "name": "i_vendor",
      "outputs": [
        {
          "internalType": "address payable",
          "name": "",
          "type": "address"
        }
      ],
      "stateMutability": "view",
      "type": "function"
    },
    {
      "inputs": [],
      "name": "jobId",
      "outputs": [
        {
          "internalType": "bytes32",
          "name": "",
          "type": "bytes32"
        }
      ],
      "stateMutability": "view",
      "type": "function"
    },
    {
      "inputs": [],
      "name": "order",
      "outputs": [
        {
          "internalType": "string",
          "name": "orderId",
          "type": "string"
        },
        {
          "internalType": "string",
          "name": "provider",
          "type": "string"
        }
      ],
      "stateMutability": "view",
      "type": "function"
    },
    {
      "inputs": [],
      "name": "owner",
      "outputs": [
        {
          "internalType": "address",
          "name": "",
          "type": "address"
        }
      ],
      "stateMutability": "view",
      "type": "function"
    },
    {
      "inputs": [],
      "name": "pay",
      "outputs": [],
      "stateMutability": "payable",
      "type": "function"
    },
    {
      "inputs": [
        {
          "internalType": "bool",
          "name": "_mock",
          "type": "bool"
        }
      ],
      "name": "requestDeliveryStatus",
      "outputs": [
        {
          "internalType": "bytes32",
          "name": "requestId",
          "type": "bytes32"
        }
      ],
      "stateMutability": "nonpayable",
      "type": "function"
    },
    {
      "inputs": [],
      "name": "result",
      "outputs": [
        {
          "internalType": "string",
          "name": "",
          "type": "string"
        }
      ],
      "stateMutability": "view",
      "type": "function"
    },
    {
      "inputs": [],
      "name": "s_isTransactionFulfilled",
      "outputs": [
        {
          "internalType": "bool",
          "name": "",
          "type": "bool"
        }
      ],
      "stateMutability": "view",
      "type": "function"
    },
    {
      "inputs": [],
      "name": "s_lastTimestamp",
      "outputs": [
        {
          "internalType": "uint256",
          "name": "",
          "type": "uint256"
        }
      ],
      "stateMutability": "view",
      "type": "function"
    },
    {
      "inputs": [],
      "name": "s_oracleAddress",
      "outputs": [
        {
          "internalType": "address",
          "name": "",
          "type": "address"
        }
      ],
      "stateMutability": "view",
      "type": "function"
    },
    {
      "inputs": [],
      "name": "s_orderState",
      "outputs": [
        {
          "internalType": "enum AssuredPay.OrderState",
          "name": "",
          "type": "uint8"
        }
      ],
      "stateMutability": "view",
      "type": "function"
    },
    {
      "inputs": [
        {
          "internalType": "string",
          "name": "orderId",
          "type": "string"
        },
        {
          "internalType": "string",
          "name": "provider",
          "type": "string"
        }
      ],
      "name": "setOrder",
      "outputs": [],
      "stateMutability": "nonpayable",
      "type": "function"
    },
    {
      "inputs": [
        {
          "internalType": "uint8",
          "name": "state",
          "type": "uint8"
        }
      ],
      "name": "setOrderState",
      "outputs": [],
      "stateMutability": "nonpayable",
      "type": "function"
    },
    {
      "inputs": [
        {
          "internalType": "address",
          "name": "to",
          "type": "address"
        }
      ],
      "name": "transferOwnership",
      "outputs": [],
      "stateMutability": "nonpayable",
      "type": "function"
    },
    {
      "inputs": [],
      "name": "withdrawAmount",
      "outputs": [],
      "stateMutability": "nonpayable",
      "type": "function"
    },
    {
      "inputs": [],
      "name": "withdrawLink",
      "outputs": [],
      "stateMutability": "nonpayable",
      "type": "function"
    }
  ],
  "bytecode": "0x61010060405260016004557301be23585060835e02b77ef475b0cc51aa1e0709600860006101000a81548173ffffffffffffffffffffffffffffffffffffffff021916908373ffffffffffffffffffffffffffffffffffffffff160217905550736f527c87614b1cb5084820f96c95a609fe44b866600960006101000a81548173ffffffffffffffffffffffffffffffffffffffff021916908373ffffffffffffffffffffffffffffffffffffffff1602179055507f3566656239353963383964333430386161633338623062626261303536666137600a55600a670de0b6b3a76400006001620000f19190620006a6565b620000fd91906200066e565b6080908152506000600b60026101000a81548163ffffffff021916908363ffffffff1602179055503480156200013257600080fd5b5060405162003aa138038062003aa183398181016040528101906200015891906200056f565b828060008073ffffffffffffffffffffffffffffffffffffffff168273ffffffffffffffffffffffffffffffffffffffff161415620001ce576040517f08c379a0000000000000000000000000000000000000000000000000000000008152600401620001c59062000619565b60405180910390fd5b81600660006101000a81548173ffffffffffffffffffffffffffffffffffffffff021916908373ffffffffffffffffffffffffffffffffffffffff160217905550600073ffffffffffffffffffffffffffffffffffffffff168173ffffffffffffffffffffffffffffffffffffffff1614620002565762000255816200038760201b60201c565b5b5050506200028c600860009054906101000a900473ffffffffffffffffffffffffffffffffffffffff16620004b960201b60201c565b620002bf600960009054906101000a900473ffffffffffffffffffffffffffffffffffffffff16620004fd60201b60201c565b6001600b60006101000a81548160ff02191690836003811115620002e857620002e7620007a3565b5b02179055508060e081815250508273ffffffffffffffffffffffffffffffffffffffff1660a08173ffffffffffffffffffffffffffffffffffffffff1660601b815250508173ffffffffffffffffffffffffffffffffffffffff1660c08173ffffffffffffffffffffffffffffffffffffffff1660601b815250506000600b60016101000a81548160ff0219169083151502179055505050506200085d565b3373ffffffffffffffffffffffffffffffffffffffff168173ffffffffffffffffffffffffffffffffffffffff161415620003f9576040517f08c379a0000000000000000000000000000000000000000000000000000000008152600401620003f0906200063b565b60405180910390fd5b80600760006101000a81548173ffffffffffffffffffffffffffffffffffffffff021916908373ffffffffffffffffffffffffffffffffffffffff1602179055508073ffffffffffffffffffffffffffffffffffffffff16600660009054906101000a900473ffffffffffffffffffffffffffffffffffffffff1673ffffffffffffffffffffffffffffffffffffffff167fed8889f560326eb138920d842192f0eb3dd22b4f139c87a2c57538e05bae127860405160405180910390a350565b80600260006101000a81548173ffffffffffffffffffffffffffffffffffffffff021916908373ffffffffffffffffffffffffffffffffffffffff16021790555050565b80600360006101000a81548173ffffffffffffffffffffffffffffffffffffffff021916908373ffffffffffffffffffffffffffffffffffffffff16021790555050565b600081519050620005528162000829565b92915050565b600081519050620005698162000843565b92915050565b6000806000606084860312156200058b576200058a620007d2565b5b60006200059b8682870162000541565b9350506020620005ae8682870162000541565b9250506040620005c18682870162000558565b9150509250925092565b6000620005da6018836200065d565b9150620005e782620007d7565b602082019050919050565b6000620006016017836200065d565b91506200060e8262000800565b602082019050919050565b600060208201905081810360008301526200063481620005cb565b9050919050565b600060208201905081810360008301526200065681620005f2565b9050919050565b600082825260208201905092915050565b60006200067b826200073b565b915062000688836200073b565b9250826200069b576200069a62000774565b5b828204905092915050565b6000620006b3826200073b565b9150620006c0836200073b565b9250817fffffffffffffffffffffffffffffffffffffffffffffffffffffffffffffffff0483118215151615620006fc57620006fb62000745565b5b828202905092915050565b600062000714826200071b565b9050919050565b600073ffffffffffffffffffffffffffffffffffffffff82169050919050565b6000819050919050565b7f4e487b7100000000000000000000000000000000000000000000000000000000600052601160045260246000fd5b7f4e487b7100000000000000000000000000000000000000000000000000000000600052601260045260246000fd5b7f4e487b7100000000000000000000000000000000000000000000000000000000600052602160045260246000fd5b600080fd5b7f43616e6e6f7420736574206f776e657220746f207a65726f0000000000000000600082015250565b7f43616e6e6f74207472616e7366657220746f2073656c66000000000000000000600082015250565b620008348162000707565b81146200084057600080fd5b50565b6200084e816200073b565b81146200085a57600080fd5b50565b60805160a05160601c60c05160601c60e0516131da620008c7600039600081816104d2015281816104f60152610904015260008181610929015281816109de0152610d23015260008181610a7001528181610b2501526112110152600061160301526131da6000f3fe6080604052600436106101405760003560e01c806375d946f1116100b6578063b69ef8a81161006f578063b69ef8a8146103bd578063bf15071d146103e8578063c2939d9714610414578063d45706271461043f578063ee75a75e1461046a578063f2fde38b146104a757610140565b806375d946f1146102e557806379ba5097146103105780638da5cb5b146103275780638dc654a214610352578063a2422ed014610369578063aa5e3a0d1461039257610140565b8063501ad9da11610108578063501ad9da146101f9578063534844a2146102245780635eaa12211461023b578063619d229014610266578063653721471461028f5780636a91604b146102ba57610140565b806301619d3d146101455780631b9265b814610170578063329bf3571461017a57806337441996146101a55780634d9b3d5d146101ce575b600080fd5b34801561015157600080fd5b5061015a6104d0565b60405161016791906129d8565b60405180910390f35b6101786104f4565b005b34801561018657600080fd5b5061018f610557565b60405161019c919061288e565b60405180910390f35b3480156101b157600080fd5b506101cc60048036038101906101c79190612344565b61056a565b005b3480156101da57600080fd5b506101e36108cf565b6040516101f091906129d8565b60405180910390f35b34801561020557600080fd5b5061020e6108d7565b60405161021b919061276c565b60405180910390f35b34801561023057600080fd5b506102396108fd565b005b34801561024757600080fd5b50610250610c0f565b60405161025d919061276c565b60405180910390f35b34801561027257600080fd5b5061028d600480360381019061028891906123a0565b610c35565b005b34801561029b57600080fd5b506102a4610c8d565b6040516102b191906128df565b60405180910390f35b3480156102c657600080fd5b506102cf610d1b565b6040516102dc91906129d8565b60405180910390f35b3480156102f157600080fd5b506102fa610d21565b6040516103079190612787565b60405180910390f35b34801561031c57600080fd5b50610325610d45565b005b34801561033357600080fd5b5061033c610edc565b604051610349919061276c565b60405180910390f35b34801561035e57600080fd5b50610367610f06565b005b34801561037557600080fd5b50610390600480360381019061038b9190612445565b61108c565b005b34801561039e57600080fd5b506103a76110ce565b6040516103b491906128c4565b60405180910390f35b3480156103c957600080fd5b506103d26110e1565b6040516103df91906129d8565b60405180910390f35b3480156103f457600080fd5b506103fd6110e7565b60405161040b929190612901565b60405180910390f35b34801561042057600080fd5b50610429611209565b60405161043691906128a9565b60405180910390f35b34801561044b57600080fd5b5061045461120f565b6040516104619190612787565b60405180910390f35b34801561047657600080fd5b50610491600480360381019061048c91906122ea565b611233565b60405161049e91906128a9565b60405180910390f35b3480156104b357600080fd5b506104ce60048036038101906104c991906122bd565b611630565b005b7f000000000000000000000000000000000000000000000000000000000000000081565b7f000000000000000000000000000000000000000000000000000000000000000034101561054e576040517fb1b5a20500000000000000000000000000000000000000000000000000000000815260040160405180910390fd5b34600c81905550565b600b60019054906101000a900460ff1681565b80600e90805190602001906105809291906120a5565b5061064a600e805461059190612e3b565b80601f01602080910402602001604051908101604052809291908181526020018280546105bd90612e3b565b801561060a5780601f106105df5761010080835404028352916020019161060a565b820191906000526020600020905b8154815290600101906020018083116105ed57829003601f168201915b50505050506040518060400160405280600981526020017f44656c6976657265640000000000000000000000000000000000000000000000815250611644565b1561067f576000600b60006101000a81548160ff0219169083600381111561067557610674612f5b565b5b02179055506108cb565b610748600e805461068f90612e3b565b80601f01602080910402602001604051908101604052809291908181526020018280546106bb90612e3b565b80156107085780601f106106dd57610100808354040283529160200191610708565b820191906000526020600020905b8154815290600101906020018083116106eb57829003601f168201915b50505050506040518060400160405280600781526020017f4661696c75726500000000000000000000000000000000000000000000000000815250611644565b1561077d576002600b60006101000a81548160ff0219169083600381111561077357610772612f5b565b5b02179055506108ca565b610846600e805461078d90612e3b565b80601f01602080910402602001604051908101604052809291908181526020018280546107b990612e3b565b80156108065780601f106107db57610100808354040283529160200191610806565b820191906000526020600020905b8154815290600101906020018083116107e957829003601f168201915b50505050506040518060400160405280600881526020017f6e6f74666f756e64000000000000000000000000000000000000000000000000815250611644565b156108c9576003600b60006101000a81548160ff0219169083600381111561087157610870612f5b565b5b021790555060405180602001604052806000815250600f600001908051906020019061089e9291906120a5565b5060405180602001604052806000815250600f60010190805190602001906108c79291906120a5565b505b5b5b5050565b600047905090565b600860009054906101000a900473ffffffffffffffffffffffffffffffffffffffff1681565b60008060007f0000000000000000000000000000000000000000000000000000000000000000471490507f000000000000000000000000000000000000000000000000000000000000000073ffffffffffffffffffffffffffffffffffffffff163373ffffffffffffffffffffffffffffffffffffffff161415610a6e576002600381111561098f5761098e612f5b565b5b600b60009054906101000a900460ff1660038111156109b1576109b0612f5b565b5b149150600b60019054906101000a900460ff161580156109ce5750815b80156109d75750805b15610a69577f000000000000000000000000000000000000000000000000000000000000000073ffffffffffffffffffffffffffffffffffffffff1647604051610a2090612757565b60006040518083038185875af1925050503d8060008114610a5d576040519150601f19603f3d011682016040523d82523d6000602084013e610a62565b606091505b5050809350505b610bb2565b7f000000000000000000000000000000000000000000000000000000000000000073ffffffffffffffffffffffffffffffffffffffff163373ffffffffffffffffffffffffffffffffffffffff161415610bb15760006003811115610ad657610ad5612f5b565b5b600b60009054906101000a900460ff166003811115610af857610af7612f5b565b5b149150600b60019054906101000a900460ff16158015610b155750815b8015610b1e5750805b15610bb0577f000000000000000000000000000000000000000000000000000000000000000073ffffffffffffffffffffffffffffffffffffffff1647604051610b6790612757565b60006040518083038185875af1925050503d8060008114610ba4576040519150601f19603f3d011682016040523d82523d6000602084013e610ba9565b606091505b5050809350505b5b5b8215610bd8576001600b60016101000a81548160ff021916908315150217905550610c0a565b6040517f28a4d54a00000000000000000000000000000000000000000000000000000000815260040160405180910390fd5b505050565b600960009054906101000a900473ffffffffffffffffffffffffffffffffffffffff1681565b604051806040016040528083815260200182815250600f6000820151816000019080519060200190610c689291906120a5565b506020820151816001019080519060200190610c859291906120a5565b509050505050565b600e8054610c9a90612e3b565b80601f0160208091040260200160405190810160405280929190818152602001828054610cc690612e3b565b8015610d135780601f10610ce857610100808354040283529160200191610d13565b820191906000526020600020905b815481529060010190602001808311610cf657829003601f168201915b505050505081565b600d5481565b7f000000000000000000000000000000000000000000000000000000000000000081565b600760009054906101000a900473ffffffffffffffffffffffffffffffffffffffff1673ffffffffffffffffffffffffffffffffffffffff163373ffffffffffffffffffffffffffffffffffffffff1614610dd5576040517f08c379a0000000000000000000000000000000000000000000000000000000008152600401610dcc90612938565b60405180910390fd5b6000600660009054906101000a900473ffffffffffffffffffffffffffffffffffffffff16905033600660006101000a81548173ffffffffffffffffffffffffffffffffffffffff021916908373ffffffffffffffffffffffffffffffffffffffff1602179055506000600760006101000a81548173ffffffffffffffffffffffffffffffffffffffff021916908373ffffffffffffffffffffffffffffffffffffffff1602179055503373ffffffffffffffffffffffffffffffffffffffff168173ffffffffffffffffffffffffffffffffffffffff167f8be0079c531659141344cd1fd0a4f28419497f9722a3daafe3b4186f6b6457e060405160405180910390a350565b6000600660009054906101000a900473ffffffffffffffffffffffffffffffffffffffff16905090565b610f0e61169d565b6000600860009054906101000a900473ffffffffffffffffffffffffffffffffffffffff1690508073ffffffffffffffffffffffffffffffffffffffff1663a9059cbb338373ffffffffffffffffffffffffffffffffffffffff166370a08231306040518263ffffffff1660e01b8152600401610f8b919061276c565b60206040518083038186803b158015610fa357600080fd5b505afa158015610fb7573d6000803e3d6000fd5b505050506040513d601f19601f82011682018060405250810190610fdb9190612418565b6040518363ffffffff1660e01b8152600401610ff89291906127a2565b602060405180830381600087803b15801561101257600080fd5b505af1158015611026573d6000803e3d6000fd5b505050506040513d601f19601f8201168201806040525081019061104a9190612317565b611089576040517f08c379a000000000000000000000000000000000000000000000000000000000815260040161108090612998565b60405180910390fd5b50565b8060ff1660038111156110a2576110a1612f5b565b5b600b60006101000a81548160ff021916908360038111156110c6576110c5612f5b565b5b021790555050565b600b60009054906101000a900460ff1681565b600c5481565b600f8060000180546110f890612e3b565b80601f016020809104026020016040519081016040528092919081815260200182805461112490612e3b565b80156111715780601f1061114657610100808354040283529160200191611171565b820191906000526020600020905b81548152906001019060200180831161115457829003601f168201915b50505050509080600101805461118690612e3b565b80601f01602080910402602001604051908101604052809291908181526020018280546111b290612e3b565b80156111ff5780601f106111d4576101008083540402835291602001916111ff565b820191906000526020600020905b8154815290600101906020018083116111e257829003601f168201915b5050505050905082565b600a5481565b7f000000000000000000000000000000000000000000000000000000000000000081565b600061123d61169d565b7fc5d2460186f7233c927e7db2dcc703c0e500b653ca82273b7bfad8045d85a470600f60000160405161127091906126fd565b604051809103902014806112bc57507fc5d2460186f7233c927e7db2dcc703c0e500b653ca82273b7bfad8045d85a470600f6001016040516112b291906126fd565b6040518091039020145b156112f3576040517f0e6249e200000000000000000000000000000000000000000000000000000000815260040160405180910390fd5b6000611309600a5430633744199660e01b61172f565b905060008361134d576040518060400160405280600581526020017f66616c7365000000000000000000000000000000000000000000000000000000815250611384565b6040518060400160405280600481526020017f74727565000000000000000000000000000000000000000000000000000000008152505b905061145d6040518060400160405280600781526020017f6f72646572496400000000000000000000000000000000000000000000000000815250600f60000180546113cf90612e3b565b80601f01602080910402602001604051908101604052809291908181526020018280546113fb90612e3b565b80156114485780601f1061141d57610100808354040283529160200191611448565b820191906000526020600020905b81548152906001019060200180831161142b57829003601f168201915b5050505050846117609092919063ffffffff16565b6115346040518060400160405280600881526020017f70726f7669646572000000000000000000000000000000000000000000000000815250600f60010180546114a690612e3b565b80601f01602080910402602001604051908101604052809291908181526020018280546114d290612e3b565b801561151f5780601f106114f45761010080835404028352916020019161151f565b820191906000526020600020905b81548152906001019060200180831161150257829003601f168201915b5050505050846117609092919063ffffffff16565b61157e6040518060400160405280600481526020017f6d6f636b0000000000000000000000000000000000000000000000000000000081525082846117609092919063ffffffff16565b6115fd6040518060400160405280600481526020017f70617468000000000000000000000000000000000000000000000000000000008152506040518060400160405280600881526020017f646174612c746167000000000000000000000000000000000000000000000000815250846117609092919063ffffffff16565b611627827f0000000000000000000000000000000000000000000000000000000000000000611793565b92505050919050565b61163861169d565b611641816117ca565b50565b6000816040516020016116579190612740565b604051602081830303815290604052805190602001208360405160200161167e9190612740565b6040516020818303038152906040528051906020012014905092915050565b600660009054906101000a900473ffffffffffffffffffffffffffffffffffffffff1673ffffffffffffffffffffffffffffffffffffffff163373ffffffffffffffffffffffffffffffffffffffff161461172d576040517f08c379a000000000000000000000000000000000000000000000000000000000815260040161172490612978565b60405180910390fd5b565b61173761212b565b61173f61212b565b611756858585846118f9909392919063ffffffff16565b9150509392505050565b6117778284608001516119a990919063ffffffff16565b61178e8184608001516119a990919063ffffffff16565b505050565b60006117c2600360009054906101000a900473ffffffffffffffffffffffffffffffffffffffff1684846119ce565b905092915050565b3373ffffffffffffffffffffffffffffffffffffffff168173ffffffffffffffffffffffffffffffffffffffff161415611839576040517f08c379a0000000000000000000000000000000000000000000000000000000008152600401611830906129b8565b60405180910390fd5b80600760006101000a81548173ffffffffffffffffffffffffffffffffffffffff021916908373ffffffffffffffffffffffffffffffffffffffff1602179055508073ffffffffffffffffffffffffffffffffffffffff16600660009054906101000a900473ffffffffffffffffffffffffffffffffffffffff1673ffffffffffffffffffffffffffffffffffffffff167fed8889f560326eb138920d842192f0eb3dd22b4f139c87a2c57538e05bae127860405160405180910390a350565b61190161212b565b6119118560800151610100611a9a565b508385600001818152505082856020019073ffffffffffffffffffffffffffffffffffffffff16908173ffffffffffffffffffffffffffffffffffffffff16815250508185604001907bffffffffffffffffffffffffffffffffffffffffffffffffffffffff191690817bffffffffffffffffffffffffffffffffffffffffffffffffffffffff191681525050849050949350505050565b6119b68260038351611b04565b6119c98183611c8990919063ffffffff16565b505050565b60008060045490506001816119e39190612aac565b6004819055506000634042994660e01b60008087600001513089604001518760018c6080015160000151604051602401611a249897969594939291906127cb565b604051602081830303815290604052907bffffffffffffffffffffffffffffffffffffffffffffffffffffffff19166020820180517bffffffffffffffffffffffffffffffffffffffffffffffffffffffff83818316178352505050509050611a8f86838684611cab565b925050509392505050565b611aa2612198565b6000602083611ab19190612ecc565b14611add57602082611ac39190612ecc565b6020611acf9190612ccd565b82611ada9190612aac565b91505b81836020018181525050604051808452600081528281016020016040525082905092915050565b60178167ffffffffffffffff1611611b3b57611b358160058460ff16901b60ff161784611e4f90919063ffffffff16565b50611c84565b60ff8167ffffffffffffffff1611611b9157611b6a601860058460ff16901b1784611e4f90919063ffffffff16565b50611b8b8167ffffffffffffffff16600185611e6f9092919063ffffffff16565b50611c83565b61ffff8167ffffffffffffffff1611611be857611bc1601960058460ff16901b1784611e4f90919063ffffffff16565b50611be28167ffffffffffffffff16600285611e6f9092919063ffffffff16565b50611c82565b63ffffffff8167ffffffffffffffff1611611c4157611c1a601a60058460ff16901b1784611e4f90919063ffffffff16565b50611c3b8167ffffffffffffffff16600485611e6f9092919063ffffffff16565b50611c81565b611c5e601b60058460ff16901b1784611e4f90919063ffffffff16565b50611c7f8167ffffffffffffffff16600885611e6f9092919063ffffffff16565b505b5b5b5b505050565b611c91612198565b611ca383846000015151848551611e91565b905092915050565b60003084604051602001611cc0929190612714565b604051602081830303815290604052805190602001209050846005600083815260200190815260200160002060006101000a81548173ffffffffffffffffffffffffffffffffffffffff021916908373ffffffffffffffffffffffffffffffffffffffff160217905550807fb5e6e01e79f91267dc17b4e6314d5d4d03593d2ceee0fbb452b750bd70ea5af960405160405180910390a2600260009054906101000a900473ffffffffffffffffffffffffffffffffffffffff1673ffffffffffffffffffffffffffffffffffffffff16634000aea08685856040518463ffffffff1660e01b8152600401611db693929190612850565b602060405180830381600087803b158015611dd057600080fd5b505af1158015611de4573d6000803e3d6000fd5b505050506040513d601f19601f82011682018060405250810190611e089190612317565b611e47576040517f08c379a0000000000000000000000000000000000000000000000000000000008152600401611e3e90612958565b60405180910390fd5b949350505050565b611e57612198565b611e678384600001515184611f80565b905092915050565b611e77612198565b611e88848560000151518585611fd7565b90509392505050565b611e99612198565b8251821115611ea757600080fd5b84602001518285611eb89190612aac565b1115611eed57611eec856002611edd88602001518887611ed89190612aac565b612065565b611ee79190612c73565b612081565b5b600080865180518760208301019350808887011115611f0c5787860182525b60208701925050505b60208410611f535780518252602082611f2e9190612aac565b9150602081611f3d9190612aac565b9050602084611f4c9190612ccd565b9350611f15565b60006001856020036101000a03905080198251168184511681811785525050508692505050949350505050565b611f88612198565b83602001518310611fae57611fad8460028660200151611fa89190612c73565b612081565b5b8351805160208583010184815381861415611fca576001820183525b5050508390509392505050565b611fdf612198565b84602001518483611ff09190612aac565b11156120185761201785600286856120089190612aac565b6120129190612c73565b612081565b5b600060018361010061202a9190612b55565b6120349190612ccd565b905085518386820101858319825116178152815185880111156120575784870182525b505085915050949350505050565b6000818311156120775782905061207b565b8190505b92915050565b6000826000015190506120948383611a9a565b5061209f8382611c89565b50505050565b8280546120b190612e3b565b90600052602060002090601f0160209004810192826120d3576000855561211a565b82601f106120ec57805160ff191683800117855561211a565b8280016001018555821561211a579182015b828111156121195782518255916020019190600101906120fe565b5b50905061212791906121b2565b5090565b6040518060a0016040528060008019168152602001600073ffffffffffffffffffffffffffffffffffffffff16815260200160007bffffffffffffffffffffffffffffffffffffffffffffffffffffffff1916815260200160008152602001612192612198565b81525090565b604051806040016040528060608152602001600081525090565b5b808211156121cb5760008160009055506001016121b3565b5090565b60006121e26121dd84612a18565b6129f3565b9050828152602081018484840111156121fe576121fd612fed565b5b612209848285612df9565b509392505050565b60008135905061222081613131565b92915050565b60008135905061223581613148565b92915050565b60008151905061224a81613148565b92915050565b60008135905061225f8161315f565b92915050565b600082601f83011261227a57612279612fe8565b5b813561228a8482602086016121cf565b91505092915050565b6000815190506122a281613176565b92915050565b6000813590506122b78161318d565b92915050565b6000602082840312156122d3576122d2612ff7565b5b60006122e184828501612211565b91505092915050565b600060208284031215612300576122ff612ff7565b5b600061230e84828501612226565b91505092915050565b60006020828403121561232d5761232c612ff7565b5b600061233b8482850161223b565b91505092915050565b6000806040838503121561235b5761235a612ff7565b5b600061236985828601612250565b925050602083013567ffffffffffffffff81111561238a57612389612ff2565b5b61239685828601612265565b9150509250929050565b600080604083850312156123b7576123b6612ff7565b5b600083013567ffffffffffffffff8111156123d5576123d4612ff2565b5b6123e185828601612265565b925050602083013567ffffffffffffffff81111561240257612401612ff2565b5b61240e85828601612265565b9150509250929050565b60006020828403121561242e5761242d612ff7565b5b600061243c84828501612293565b91505092915050565b60006020828403121561245b5761245a612ff7565b5b6000612469848285016122a8565b91505092915050565b61247b81612d13565b82525050565b61248a81612d01565b82525050565b61249981612d25565b82525050565b6124a881612d31565b82525050565b6124b781612d3b565b82525050565b60006124c882612a5e565b6124d28185612a74565b93506124e2818560208601612e08565b6124eb81612ffc565b840191505092915050565b6000815461250381612e3b565b61250d8186612a85565b9450600182166000811461252857600181146125395761256c565b60ff1983168652818601935061256c565b61254285612a49565b60005b8381101561256457815481890152600182019150602081019050612545565b838801955050505b50505092915050565b61258661258182612db1565b612e9e565b82525050565b61259581612dc3565b82525050565b60006125a682612a69565b6125b08185612a90565b93506125c0818560208601612e08565b6125c981612ffc565b840191505092915050565b60006125df82612a69565b6125e98185612aa1565b93506125f9818560208601612e08565b80840191505092915050565b6000612612601683612a90565b915061261d82613027565b602082019050919050565b6000612635602383612a90565b915061264082613050565b604082019050919050565b6000612658601683612a90565b91506126638261309f565b602082019050919050565b600061267b601283612a90565b9150612686826130c8565b602082019050919050565b600061269e600083612a85565b91506126a9826130f1565b600082019050919050565b60006126c1601783612a90565b91506126cc826130f4565b602082019050919050565b6126e081612d9a565b82525050565b6126f76126f282612d9a565b612ec2565b82525050565b600061270982846124f6565b915081905092915050565b60006127208285612575565b60148201915061273082846126e6565b6020820191508190509392505050565b600061274c82846125d4565b915081905092915050565b600061276282612691565b9150819050919050565b60006020820190506127816000830184612481565b92915050565b600060208201905061279c6000830184612472565b92915050565b60006040820190506127b76000830185612481565b6127c460208301846126d7565b9392505050565b6000610100820190506127e1600083018b612481565b6127ee602083018a6126d7565b6127fb604083018961249f565b6128086060830188612481565b61281560808301876124ae565b61282260a08301866126d7565b61282f60c08301856126d7565b81810360e083015261284181846124bd565b90509998505050505050505050565b60006060820190506128656000830186612481565b61287260208301856126d7565b818103604083015261288481846124bd565b9050949350505050565b60006020820190506128a36000830184612490565b92915050565b60006020820190506128be600083018461249f565b92915050565b60006020820190506128d9600083018461258c565b92915050565b600060208201905081810360008301526128f9818461259b565b905092915050565b6000604082019050818103600083015261291b818561259b565b9050818103602083015261292f818461259b565b90509392505050565b6000602082019050818103600083015261295181612605565b9050919050565b6000602082019050818103600083015261297181612628565b9050919050565b600060208201905081810360008301526129918161264b565b9050919050565b600060208201905081810360008301526129b18161266e565b9050919050565b600060208201905081810360008301526129d1816126b4565b9050919050565b60006020820190506129ed60008301846126d7565b92915050565b60006129fd612a0e565b9050612a098282612e6d565b919050565b6000604051905090565b600067ffffffffffffffff821115612a3357612a32612fb9565b5b612a3c82612ffc565b9050602081019050919050565b60008190508160005260206000209050919050565b600081519050919050565b600081519050919050565b600082825260208201905092915050565b600081905092915050565b600082825260208201905092915050565b600081905092915050565b6000612ab782612d9a565b9150612ac283612d9a565b9250827fffffffffffffffffffffffffffffffffffffffffffffffffffffffffffffffff03821115612af757612af6612efd565b5b828201905092915050565b6000808291508390505b6001851115612b4c57808604811115612b2857612b27612efd565b5b6001851615612b375780820291505b8081029050612b458561301a565b9450612b0c565b94509492505050565b6000612b6082612d9a565b9150612b6b83612d9a565b9250612b987fffffffffffffffffffffffffffffffffffffffffffffffffffffffffffffffff8484612ba0565b905092915050565b600082612bb05760019050612c6c565b81612bbe5760009050612c6c565b8160018114612bd45760028114612bde57612c0d565b6001915050612c6c565b60ff841115612bf057612bef612efd565b5b8360020a915084821115612c0757612c06612efd565b5b50612c6c565b5060208310610133831016604e8410600b8410161715612c425782820a905083811115612c3d57612c3c612efd565b5b612c6c565b612c4f8484846001612b02565b92509050818404811115612c6657612c65612efd565b5b81810290505b9392505050565b6000612c7e82612d9a565b9150612c8983612d9a565b9250817fffffffffffffffffffffffffffffffffffffffffffffffffffffffffffffffff0483118215151615612cc257612cc1612efd565b5b828202905092915050565b6000612cd882612d9a565b9150612ce383612d9a565b925082821015612cf657612cf5612efd565b5b828203905092915050565b6000612d0c82612d7a565b9050919050565b6000612d1e82612d7a565b9050919050565b60008115159050919050565b6000819050919050565b60007fffffffff0000000000000000000000000000000000000000000000000000000082169050919050565b6000819050612d758261311d565b919050565b600073ffffffffffffffffffffffffffffffffffffffff82169050919050565b6000819050919050565b600060ff82169050919050565b6000612dbc82612dd5565b9050919050565b6000612dce82612d67565b9050919050565b6000612de082612de7565b9050919050565b6000612df282612d7a565b9050919050565b82818337600083830152505050565b60005b83811015612e26578082015181840152602081019050612e0b565b83811115612e35576000848401525b50505050565b60006002820490506001821680612e5357607f821691505b60208210811415612e6757612e66612f8a565b5b50919050565b612e7682612ffc565b810181811067ffffffffffffffff82111715612e9557612e94612fb9565b5b80604052505050565b6000612ea982612eb0565b9050919050565b6000612ebb8261300d565b9050919050565b6000819050919050565b6000612ed782612d9a565b9150612ee283612d9a565b925082612ef257612ef1612f2c565b5b828206905092915050565b7f4e487b7100000000000000000000000000000000000000000000000000000000600052601160045260246000fd5b7f4e487b7100000000000000000000000000000000000000000000000000000000600052601260045260246000fd5b7f4e487b7100000000000000000000000000000000000000000000000000000000600052602160045260246000fd5b7f4e487b7100000000000000000000000000000000000000000000000000000000600052602260045260246000fd5b7f4e487b7100000000000000000000000000000000000000000000000000000000600052604160045260246000fd5b600080fd5b600080fd5b600080fd5b600080fd5b6000601f19601f8301169050919050565b60008160601b9050919050565b60008160011c9050919050565b7f4d7573742062652070726f706f736564206f776e657200000000000000000000600082015250565b7f756e61626c6520746f207472616e73666572416e6443616c6c20746f206f726160008201527f636c650000000000000000000000000000000000000000000000000000000000602082015250565b7f4f6e6c792063616c6c61626c65206279206f776e657200000000000000000000600082015250565b7f556e61626c6520746f207472616e736665720000000000000000000000000000600082015250565b50565b7f43616e6e6f74207472616e7366657220746f2073656c66000000000000000000600082015250565b6004811061312e5761312d612f5b565b5b50565b61313a81612d01565b811461314557600080fd5b50565b61315181612d25565b811461315c57600080fd5b50565b61316881612d31565b811461317357600080fd5b50565b61317f81612d9a565b811461318a57600080fd5b50565b61319681612da4565b81146131a157600080fd5b5056fea2646970667358221220bfb58e40d2937e3e375b3bdacae4c197d78714a816a5eedd1f2845422b29cd2664736f6c63430008070033",
  "linkReferences": {},
  "deployedLinkReferences": {}
}