{
  "_format": "hh-sol-artifact-1",
  "contractName": "AssuredPayFactory",
  "sourceName": "contracts/AssuredPayFactory.sol",
  "abi": [
    {
      "inputs": [],
      "stateMutability": "nonpayable",
      "type": "constructor"
    },
    {
      "anonymous": false,
      "inputs": [
        {
          "indexed": true,
          "internalType": "bytes32",
          "name": "id",
          "type": "bytes32"
        }
      ],
      "name": "ChainlinkCancelled",
      "type": "event"
    },
    {
      "anonymous": false,
      "inputs": [
        {
          "indexed": true,
          "internalType": "bytes32",
          "name": "id",
          "type": "bytes32"
        }
      ],
      "name": "ChainlinkFulfilled",
      "type": "event"
    },
    {
      "anonymous": false,
      "inputs": [
        {
          "indexed": true,
          "internalType": "bytes32",
          "name": "id",
          "type": "bytes32"
        }
      ],
      "name": "ChainlinkRequested",
      "type": "event"
    },
    {
      "anonymous": false,
      "inputs": [
        {
          "indexed": true,
          "internalType": "address",
          "name": "_contractAddress",
          "type": "address"
        },
        {
          "indexed": true,
          "internalType": "address",
          "name": "_customer",
          "type": "address"
        },
        {
          "indexed": true,
          "internalType": "address",
          "name": "_vendor",
          "type": "address"
        },
        {
          "indexed": false,
          "internalType": "uint256",
          "name": "_value",
          "type": "uint256"
        }
      ],
      "name": "ContractCreated",
      "type": "event"
    },
    {
      "anonymous": false,
      "inputs": [
        {
          "indexed": true,
          "internalType": "address",
          "name": "from",
          "type": "address"
        },
        {
          "indexed": true,
          "internalType": "address",
          "name": "to",
          "type": "address"
        }
      ],
      "name": "OwnershipTransferRequested",
      "type": "event"
    },
    {
      "anonymous": false,
      "inputs": [
        {
          "indexed": true,
          "internalType": "address",
          "name": "from",
          "type": "address"
        },
        {
          "indexed": true,
          "internalType": "address",
          "name": "to",
          "type": "address"
        }
      ],
      "name": "OwnershipTransferred",
      "type": "event"
    },
    {
      "inputs": [],
      "name": "ERC677_LINK_ADDRESS",
      "outputs": [
        {
          "internalType": "address",
          "name": "",
          "type": "address"
        }
      ],
      "stateMutability": "view",
      "type": "function"
    },
    {
      "inputs": [],
      "name": "acceptOwnership",
      "outputs": [],
      "stateMutability": "nonpayable",
      "type": "function"
    },
    {
      "inputs": [
        {
          "internalType": "address",
          "name": "_customer",
          "type": "address"
        },
        {
          "internalType": "uint256",
          "name": "_amount",
          "type": "uint256"
        }
      ],
      "name": "createContract",
      "outputs": [
        {
          "internalType": "address",
          "name": "",
          "type": "address"
        }
      ],
      "stateMutability": "nonpayable",
      "type": "function"
    },
    {
      "inputs": [],
      "name": "getContracts",
      "outputs": [
        {
          "internalType": "address[]",
          "name": "",
          "type": "address[]"
        }
      ],
      "stateMutability": "view",
      "type": "function"
    },
    {
      "inputs": [],
      "name": "i_vendor",
      "outputs": [
        {
          "internalType": "address",
          "name": "",
          "type": "address"
        }
      ],
      "stateMutability": "view",
      "type": "function"
    },
    {
      "inputs": [],
      "name": "owner",
      "outputs": [
        {
          "internalType": "address",
          "name": "",
          "type": "address"
        }
      ],
      "stateMutability": "view",
      "type": "function"
    },
    {
      "inputs": [
        {
          "internalType": "uint256",
          "name": "",
          "type": "uint256"
        }
      ],
      "name": "s_contracts",
      "outputs": [
        {
          "internalType": "address",
          "name": "",
          "type": "address"
        }
      ],
      "stateMutability": "view",
      "type": "function"
    },
    {
      "inputs": [
        {
          "internalType": "uint256",
          "name": "",
          "type": "uint256"
        }
      ],
      "name": "s_customers",
      "outputs": [
        {
          "internalType": "address",
          "name": "",
          "type": "address"
        }
      ],
      "stateMutability": "view",
      "type": "function"
    },
    {
      "inputs": [
        {
          "internalType": "address",
          "name": "to",
          "type": "address"
        }
      ],
      "name": "transferOwnership",
      "outputs": [],
      "stateMutability": "nonpayable",
      "type": "function"
    },
    {
      "inputs": [],
      "name": "withdrawLink",
      "outputs": [],
      "stateMutability": "nonpayable",
      "type": "function"
    }
  ],
  "bytecode": "0x60a060405260016004557301be23585060835e02b77ef475b0cc51aa1e0709600860006101000a81548173ffffffffffffffffffffffffffffffffffffffff021916908373ffffffffffffffffffffffffffffffffffffffff160217905550600a670de0b6b3a76400006001620000779190620003df565b620000839190620003a7565b6009553480156200009357600080fd5b50338060008073ffffffffffffffffffffffffffffffffffffffff168273ffffffffffffffffffffffffffffffffffffffff1614156200010a576040517f08c379a0000000000000000000000000000000000000000000000000000000008152600401620001019062000352565b60405180910390fd5b81600660006101000a81548173ffffffffffffffffffffffffffffffffffffffff021916908373ffffffffffffffffffffffffffffffffffffffff160217905550600073ffffffffffffffffffffffffffffffffffffffff168173ffffffffffffffffffffffffffffffffffffffff161462000192576200019181620001d260201b60201c565b5b5050503373ffffffffffffffffffffffffffffffffffffffff1660808173ffffffffffffffffffffffffffffffffffffffff1660601b81525050620004fa565b3373ffffffffffffffffffffffffffffffffffffffff168173ffffffffffffffffffffffffffffffffffffffff16141562000244576040517f08c379a00000000000000000000000000000000000000000000000000000000081526004016200023b9062000374565b60405180910390fd5b80600760006101000a81548173ffffffffffffffffffffffffffffffffffffffff021916908373ffffffffffffffffffffffffffffffffffffffff1602179055508073ffffffffffffffffffffffffffffffffffffffff16600660009054906101000a900473ffffffffffffffffffffffffffffffffffffffff1673ffffffffffffffffffffffffffffffffffffffff167fed8889f560326eb138920d842192f0eb3dd22b4f139c87a2c57538e05bae127860405160405180910390a350565b60006200031360188362000396565b91506200032082620004a8565b602082019050919050565b60006200033a60178362000396565b91506200034782620004d1565b602082019050919050565b600060208201905081810360008301526200036d8162000304565b9050919050565b600060208201905081810360008301526200038f816200032b565b9050919050565b600082825260208201905092915050565b6000620003b48262000440565b9150620003c18362000440565b925082620003d457620003d362000479565b5b828204905092915050565b6000620003ec8262000440565b9150620003f98362000440565b9250817fffffffffffffffffffffffffffffffffffffffffffffffffffffffffffffffff04831182151516156200043557620004346200044a565b5b828202905092915050565b6000819050919050565b7f4e487b7100000000000000000000000000000000000000000000000000000000600052601160045260246000fd5b7f4e487b7100000000000000000000000000000000000000000000000000000000600052601260045260246000fd5b7f43616e6e6f7420736574206f776e657220746f207a65726f0000000000000000600082015250565b7f43616e6e6f74207472616e7366657220746f2073656c66000000000000000000600082015250565b60805160601c61498e6200052760003960008181610223015281816103480152610881015261498e6000f3fe60806040523480156200001157600080fd5b5060043610620000ac5760003560e01c80638dc654a2116200006f5780638dc654a2146200016d578063be0d241a1462000179578063c3a2a93a14620001af578063d457062714620001d1578063f2fde38b14620001f357620000ac565b80632005d18714620000b15780634880f18c14620000e7578063501ad9da146200011d57806379ba5097146200013f5780638da5cb5b146200014b575b600080fd5b620000cf6004803603810190620000c9919062000b1e565b62000213565b604051620000de919062000d4e565b60405180910390f35b620001056004803603810190620000ff919062000b97565b620003ee565b60405162000114919062000d4e565b60405180910390f35b620001276200042e565b60405162000136919062000d4e565b60405180910390f35b6200014962000454565b005b62000155620005ee565b60405162000164919062000d4e565b60405180910390f35b6200017762000618565b005b62000197600480360381019062000191919062000b97565b620007af565b604051620001a6919062000d4e565b60405180910390f35b620001b9620007ef565b604051620001c8919062000dd5565b60405180910390f35b620001db6200087f565b604051620001ea919062000d4e565b60405180910390f35b6200021160048036038101906200020b919062000aec565b620008a3565b005b60006200021f620008bb565b60007f00000000000000000000000000000000000000000000000000000000000000008484604051620002529062000a82565b620002609392919062000d6b565b604051809103906000f0801580156200027d573d6000803e3d6000fd5b509050600b849080600181540180825580915050600190039060005260206000200160009091909190916101000a81548173ffffffffffffffffffffffffffffffffffffffff021916908373ffffffffffffffffffffffffffffffffffffffff160217905550600a819080600181540180825580915050600190039060005260206000200160009091909190916101000a81548173ffffffffffffffffffffffffffffffffffffffff021916908373ffffffffffffffffffffffffffffffffffffffff1602179055507f000000000000000000000000000000000000000000000000000000000000000073ffffffffffffffffffffffffffffffffffffffff168473ffffffffffffffffffffffffffffffffffffffff168273ffffffffffffffffffffffffffffffffffffffff167f8b4d3d17c21bac18e59006d59537476cded80f83824a8df5a18d5ec63db96eba86604051620003dc919062000e81565b60405180910390a48091505092915050565b600b8181548110620003ff57600080fd5b906000526020600020016000915054906101000a900473ffffffffffffffffffffffffffffffffffffffff1681565b600860009054906101000a900473ffffffffffffffffffffffffffffffffffffffff1681565b600760009054906101000a900473ffffffffffffffffffffffffffffffffffffffff1673ffffffffffffffffffffffffffffffffffffffff163373ffffffffffffffffffffffffffffffffffffffff1614620004e7576040517f08c379a0000000000000000000000000000000000000000000000000000000008152600401620004de9062000df9565b60405180910390fd5b6000600660009054906101000a900473ffffffffffffffffffffffffffffffffffffffff16905033600660006101000a81548173ffffffffffffffffffffffffffffffffffffffff021916908373ffffffffffffffffffffffffffffffffffffffff1602179055506000600760006101000a81548173ffffffffffffffffffffffffffffffffffffffff021916908373ffffffffffffffffffffffffffffffffffffffff1602179055503373ffffffffffffffffffffffffffffffffffffffff168173ffffffffffffffffffffffffffffffffffffffff167f8be0079c531659141344cd1fd0a4f28419497f9722a3daafe3b4186f6b6457e060405160405180910390a350565b6000600660009054906101000a900473ffffffffffffffffffffffffffffffffffffffff16905090565b62000622620008bb565b6000600860009054906101000a900473ffffffffffffffffffffffffffffffffffffffff1690508073ffffffffffffffffffffffffffffffffffffffff1663a9059cbb338373ffffffffffffffffffffffffffffffffffffffff166370a08231306040518263ffffffff1660e01b8152600401620006a1919062000d4e565b60206040518083038186803b158015620006ba57600080fd5b505afa158015620006cf573d6000803e3d6000fd5b505050506040513d601f19601f82011682018060405250810190620006f5919062000bc9565b6040518363ffffffff1660e01b81526004016200071492919062000da8565b602060405180830381600087803b1580156200072f57600080fd5b505af115801562000744573d6000803e3d6000fd5b505050506040513d601f19601f820116820180604052508101906200076a919062000b65565b620007ac576040517f08c379a0000000000000000000000000000000000000000000000000000000008152600401620007a39062000e3d565b60405180910390fd5b50565b600a8181548110620007c057600080fd5b906000526020600020016000915054906101000a900473ffffffffffffffffffffffffffffffffffffffff1681565b6060600a8054806020026020016040519081016040528092919081815260200182805480156200087557602002820191906000526020600020905b8160009054906101000a900473ffffffffffffffffffffffffffffffffffffffff1673ffffffffffffffffffffffffffffffffffffffff16815260200190600101908083116200082a575b5050505050905090565b7f000000000000000000000000000000000000000000000000000000000000000081565b620008ad620008bb565b620008b88162000950565b50565b600660009054906101000a900473ffffffffffffffffffffffffffffffffffffffff1673ffffffffffffffffffffffffffffffffffffffff163373ffffffffffffffffffffffffffffffffffffffff16146200094e576040517f08c379a0000000000000000000000000000000000000000000000000000000008152600401620009459062000e1b565b60405180910390fd5b565b3373ffffffffffffffffffffffffffffffffffffffff168173ffffffffffffffffffffffffffffffffffffffff161415620009c2576040517f08c379a0000000000000000000000000000000000000000000000000000000008152600401620009b99062000e5f565b60405180910390fd5b80600760006101000a81548173ffffffffffffffffffffffffffffffffffffffff021916908373ffffffffffffffffffffffffffffffffffffffff1602179055508073ffffffffffffffffffffffffffffffffffffffff16600660009054906101000a900473ffffffffffffffffffffffffffffffffffffffff1673ffffffffffffffffffffffffffffffffffffffff167fed8889f560326eb138920d842192f0eb3dd22b4f139c87a2c57538e05bae127860405160405180910390a350565b61392f806200102a83390190565b60008135905062000aa18162000fdb565b92915050565b60008151905062000ab88162000ff5565b92915050565b60008135905062000acf816200100f565b92915050565b60008151905062000ae6816200100f565b92915050565b60006020828403121562000b055762000b0462000f32565b5b600062000b158482850162000a90565b91505092915050565b6000806040838503121562000b385762000b3762000f32565b5b600062000b488582860162000a90565b925050602062000b5b8582860162000abe565b9150509250929050565b60006020828403121562000b7e5762000b7d62000f32565b5b600062000b8e8482850162000aa7565b91505092915050565b60006020828403121562000bb05762000baf62000f32565b5b600062000bc08482850162000abe565b91505092915050565b60006020828403121562000be25762000be162000f32565b5b600062000bf28482850162000ad5565b91505092915050565b600062000c09838362000c15565b60208301905092915050565b62000c208162000ee8565b82525050565b62000c318162000ee8565b82525050565b600062000c448262000eae565b62000c50818562000ec6565b935062000c5d8362000e9e565b8060005b8381101562000c9457815162000c78888262000bfb565b975062000c858362000eb9565b92505060018101905062000c61565b5085935050505092915050565b600062000cb060168362000ed7565b915062000cbd8262000f37565b602082019050919050565b600062000cd760168362000ed7565b915062000ce48262000f60565b602082019050919050565b600062000cfe60128362000ed7565b915062000d0b8262000f89565b602082019050919050565b600062000d2560178362000ed7565b915062000d328262000fb2565b602082019050919050565b62000d488162000f28565b82525050565b600060208201905062000d65600083018462000c26565b92915050565b600060608201905062000d82600083018662000c26565b62000d91602083018562000c26565b62000da0604083018462000d3d565b949350505050565b600060408201905062000dbf600083018562000c26565b62000dce602083018462000d3d565b9392505050565b6000602082019050818103600083015262000df1818462000c37565b905092915050565b6000602082019050818103600083015262000e148162000ca1565b9050919050565b6000602082019050818103600083015262000e368162000cc8565b9050919050565b6000602082019050818103600083015262000e588162000cef565b9050919050565b6000602082019050818103600083015262000e7a8162000d16565b9050919050565b600060208201905062000e98600083018462000d3d565b92915050565b6000819050602082019050919050565b600081519050919050565b6000602082019050919050565b600082825260208201905092915050565b600082825260208201905092915050565b600062000ef58262000f08565b9050919050565b60008115159050919050565b600073ffffffffffffffffffffffffffffffffffffffff82169050919050565b6000819050919050565b600080fd5b7f4d7573742062652070726f706f736564206f776e657200000000000000000000600082015250565b7f4f6e6c792063616c6c61626c65206279206f776e657200000000000000000000600082015250565b7f556e61626c6520746f207472616e736665720000000000000000000000000000600082015250565b7f43616e6e6f74207472616e7366657220746f2073656c66000000000000000000600082015250565b62000fe68162000ee8565b811462000ff257600080fd5b50565b620010008162000efc565b81146200100c57600080fd5b50565b6200101a8162000f28565b81146200102657600080fd5b5056fe61010060405260016004557301be23585060835e02b77ef475b0cc51aa1e0709600860006101000a81548173ffffffffffffffffffffffffffffffffffffffff021916908373ffffffffffffffffffffffffffffffffffffffff160217905550736f527c87614b1cb5084820f96c95a609fe44b866600960006101000a81548173ffffffffffffffffffffffffffffffffffffffff021916908373ffffffffffffffffffffffffffffffffffffffff1602179055507f3566656239353963383964333430386161633338623062626261303536666137600a55600a670de0b6b3a76400006001620000f19190620006a6565b620000fd91906200066e565b6080908152506000600b60026101000a81548163ffffffff021916908363ffffffff1602179055503480156200013257600080fd5b506040516200392f3803806200392f83398181016040528101906200015891906200056f565b828060008073ffffffffffffffffffffffffffffffffffffffff168273ffffffffffffffffffffffffffffffffffffffff161415620001ce576040517f08c379a0000000000000000000000000000000000000000000000000000000008152600401620001c59062000619565b60405180910390fd5b81600660006101000a81548173ffffffffffffffffffffffffffffffffffffffff021916908373ffffffffffffffffffffffffffffffffffffffff160217905550600073ffffffffffffffffffffffffffffffffffffffff168173ffffffffffffffffffffffffffffffffffffffff1614620002565762000255816200038760201b60201c565b5b5050506200028c600860009054906101000a900473ffffffffffffffffffffffffffffffffffffffff16620004b960201b60201c565b620002bf600960009054906101000a900473ffffffffffffffffffffffffffffffffffffffff16620004fd60201b60201c565b6001600b60006101000a81548160ff02191690836003811115620002e857620002e7620007a3565b5b02179055508060e081815250508273ffffffffffffffffffffffffffffffffffffffff1660a08173ffffffffffffffffffffffffffffffffffffffff1660601b815250508173ffffffffffffffffffffffffffffffffffffffff1660c08173ffffffffffffffffffffffffffffffffffffffff1660601b815250506000600b60016101000a81548160ff0219169083151502179055505050506200085d565b3373ffffffffffffffffffffffffffffffffffffffff168173ffffffffffffffffffffffffffffffffffffffff161415620003f9576040517f08c379a0000000000000000000000000000000000000000000000000000000008152600401620003f0906200063b565b60405180910390fd5b80600760006101000a81548173ffffffffffffffffffffffffffffffffffffffff021916908373ffffffffffffffffffffffffffffffffffffffff1602179055508073ffffffffffffffffffffffffffffffffffffffff16600660009054906101000a900473ffffffffffffffffffffffffffffffffffffffff1673ffffffffffffffffffffffffffffffffffffffff167fed8889f560326eb138920d842192f0eb3dd22b4f139c87a2c57538e05bae127860405160405180910390a350565b80600260006101000a81548173ffffffffffffffffffffffffffffffffffffffff021916908373ffffffffffffffffffffffffffffffffffffffff16021790555050565b80600360006101000a81548173ffffffffffffffffffffffffffffffffffffffff021916908373ffffffffffffffffffffffffffffffffffffffff16021790555050565b600081519050620005528162000829565b92915050565b600081519050620005698162000843565b92915050565b6000806000606084860312156200058b576200058a620007d2565b5b60006200059b8682870162000541565b9350506020620005ae8682870162000541565b9250506040620005c18682870162000558565b9150509250925092565b6000620005da6018836200065d565b9150620005e782620007d7565b602082019050919050565b6000620006016017836200065d565b91506200060e8262000800565b602082019050919050565b600060208201905081810360008301526200063481620005cb565b9050919050565b600060208201905081810360008301526200065681620005f2565b9050919050565b600082825260208201905092915050565b60006200067b826200073b565b915062000688836200073b565b9250826200069b576200069a62000774565b5b828204905092915050565b6000620006b3826200073b565b9150620006c0836200073b565b9250817fffffffffffffffffffffffffffffffffffffffffffffffffffffffffffffffff0483118215151615620006fc57620006fb62000745565b5b828202905092915050565b600062000714826200071b565b9050919050565b600073ffffffffffffffffffffffffffffffffffffffff82169050919050565b6000819050919050565b7f4e487b7100000000000000000000000000000000000000000000000000000000600052601160045260246000fd5b7f4e487b7100000000000000000000000000000000000000000000000000000000600052601260045260246000fd5b7f4e487b7100000000000000000000000000000000000000000000000000000000600052602160045260246000fd5b600080fd5b7f43616e6e6f7420736574206f776e657220746f207a65726f0000000000000000600082015250565b7f43616e6e6f74207472616e7366657220746f2073656c66000000000000000000600082015250565b620008348162000707565b81146200084057600080fd5b50565b6200084e816200073b565b81146200085a57600080fd5b50565b60805160a05160601c60c05160601c60e051613076620008b96000396000818161043001528181610454015261085a0152600061087f015260008181610934015281816109c60152610a7b015260006114db01526130766000f3fe60806040526004361061011f5760003560e01c806379ba5097116100a0578063b69ef8a811610064578063b69ef8a814610346578063bf15071d14610371578063c2939d971461039d578063ee75a75e146103c8578063f2fde38b146104055761011f565b806379ba5097146102995780638da5cb5b146102b05780638dc654a2146102db578063a2422ed0146102f2578063aa5e3a0d1461031b5761011f565b8063534844a2116100e7578063534844a2146101d85780635eaa1221146101ef578063619d22901461021a57806365372147146102435780636a91604b1461026e5761011f565b806301619d3d146101245780631b9265b81461014f578063329bf357146101595780633744199614610184578063501ad9da146101ad575b600080fd5b34801561013057600080fd5b5061013961042e565b6040516101469190612886565b60405180910390f35b610157610452565b005b34801561016557600080fd5b5061016e6104b5565b60405161017b919061273c565b60405180910390f35b34801561019057600080fd5b506101ab60048036038101906101a6919061221c565b6104c8565b005b3480156101b957600080fd5b506101c261082d565b6040516101cf9190612635565b60405180910390f35b3480156101e457600080fd5b506101ed610853565b005b3480156101fb57600080fd5b50610204610b2f565b6040516102119190612635565b60405180910390f35b34801561022657600080fd5b50610241600480360381019061023c9190612278565b610b55565b005b34801561024f57600080fd5b50610258610bad565b604051610265919061278d565b60405180910390f35b34801561027a57600080fd5b50610283610c3b565b6040516102909190612886565b60405180910390f35b3480156102a557600080fd5b506102ae610c41565b005b3480156102bc57600080fd5b506102c5610dd8565b6040516102d29190612635565b60405180910390f35b3480156102e757600080fd5b506102f0610e02565b005b3480156102fe57600080fd5b506103196004803603810190610314919061231d565b610f88565b005b34801561032757600080fd5b50610330610fca565b60405161033d9190612772565b60405180910390f35b34801561035257600080fd5b5061035b610fdd565b6040516103689190612886565b60405180910390f35b34801561037d57600080fd5b50610386610fe3565b6040516103949291906127af565b60405180910390f35b3480156103a957600080fd5b506103b2611105565b6040516103bf9190612757565b60405180910390f35b3480156103d457600080fd5b506103ef60048036038101906103ea91906121c2565b61110b565b6040516103fc9190612757565b60405180910390f35b34801561041157600080fd5b5061042c60048036038101906104279190612195565b611508565b005b7f000000000000000000000000000000000000000000000000000000000000000081565b7f00000000000000000000000000000000000000000000000000000000000000003410156104ac576040517fb1b5a20500000000000000000000000000000000000000000000000000000000815260040160405180910390fd5b34600c81905550565b600b60019054906101000a900460ff1681565b80600e90805190602001906104de929190611f7d565b506105a8600e80546104ef90612cd7565b80601f016020809104026020016040519081016040528092919081815260200182805461051b90612cd7565b80156105685780601f1061053d57610100808354040283529160200191610568565b820191906000526020600020905b81548152906001019060200180831161054b57829003601f168201915b50505050506040518060400160405280600981526020017f44656c697665726564000000000000000000000000000000000000000000000081525061151c565b156105dd576000600b60006101000a81548160ff021916908360038111156105d3576105d2612df7565b5b0217905550610829565b6106a6600e80546105ed90612cd7565b80601f016020809104026020016040519081016040528092919081815260200182805461061990612cd7565b80156106665780601f1061063b57610100808354040283529160200191610666565b820191906000526020600020905b81548152906001019060200180831161064957829003601f168201915b50505050506040518060400160405280600781526020017f4661696c7572650000000000000000000000000000000000000000000000000081525061151c565b156106db576002600b60006101000a81548160ff021916908360038111156106d1576106d0612df7565b5b0217905550610828565b6107a4600e80546106eb90612cd7565b80601f016020809104026020016040519081016040528092919081815260200182805461071790612cd7565b80156107645780601f1061073957610100808354040283529160200191610764565b820191906000526020600020905b81548152906001019060200180831161074757829003601f168201915b50505050506040518060400160405280600881526020017f6e6f74666f756e6400000000000000000000000000000000000000000000000081525061151c565b15610827576003600b60006101000a81548160ff021916908360038111156107cf576107ce612df7565b5b021790555060405180602001604052806000815250600f60000190805190602001906107fc929190611f7d565b5060405180602001604052806000815250600f6001019080519060200190610825929190611f7d565b505b5b5b5050565b600860009054906101000a900473ffffffffffffffffffffffffffffffffffffffff1681565b60008060007f0000000000000000000000000000000000000000000000000000000000000000471490507f000000000000000000000000000000000000000000000000000000000000000073ffffffffffffffffffffffffffffffffffffffff163373ffffffffffffffffffffffffffffffffffffffff1614156109c457600260038111156108e5576108e4612df7565b5b600b60009054906101000a900460ff16600381111561090757610906612df7565b5b149150600b60019054906101000a900460ff161580156109245750815b801561092d5750805b156109bf577f000000000000000000000000000000000000000000000000000000000000000073ffffffffffffffffffffffffffffffffffffffff164760405161097690612620565b60006040518083038185875af1925050503d80600081146109b3576040519150601f19603f3d011682016040523d82523d6000602084013e6109b8565b606091505b5050809350505b610b08565b7f000000000000000000000000000000000000000000000000000000000000000073ffffffffffffffffffffffffffffffffffffffff163373ffffffffffffffffffffffffffffffffffffffff161415610b075760006003811115610a2c57610a2b612df7565b5b600b60009054906101000a900460ff166003811115610a4e57610a4d612df7565b5b149150600b60019054906101000a900460ff16158015610a6b5750815b8015610a745750805b15610b06577f000000000000000000000000000000000000000000000000000000000000000073ffffffffffffffffffffffffffffffffffffffff1647604051610abd90612620565b60006040518083038185875af1925050503d8060008114610afa576040519150601f19603f3d011682016040523d82523d6000602084013e610aff565b606091505b5050809350505b5b5b8215610b2a576001600b60016101000a81548160ff0219169083151502179055505b505050565b600960009054906101000a900473ffffffffffffffffffffffffffffffffffffffff1681565b604051806040016040528083815260200182815250600f6000820151816000019080519060200190610b88929190611f7d565b506020820151816001019080519060200190610ba5929190611f7d565b509050505050565b600e8054610bba90612cd7565b80601f0160208091040260200160405190810160405280929190818152602001828054610be690612cd7565b8015610c335780601f10610c0857610100808354040283529160200191610c33565b820191906000526020600020905b815481529060010190602001808311610c1657829003601f168201915b505050505081565b600d5481565b600760009054906101000a900473ffffffffffffffffffffffffffffffffffffffff1673ffffffffffffffffffffffffffffffffffffffff163373ffffffffffffffffffffffffffffffffffffffff1614610cd1576040517f08c379a0000000000000000000000000000000000000000000000000000000008152600401610cc8906127e6565b60405180910390fd5b6000600660009054906101000a900473ffffffffffffffffffffffffffffffffffffffff16905033600660006101000a81548173ffffffffffffffffffffffffffffffffffffffff021916908373ffffffffffffffffffffffffffffffffffffffff1602179055506000600760006101000a81548173ffffffffffffffffffffffffffffffffffffffff021916908373ffffffffffffffffffffffffffffffffffffffff1602179055503373ffffffffffffffffffffffffffffffffffffffff168173ffffffffffffffffffffffffffffffffffffffff167f8be0079c531659141344cd1fd0a4f28419497f9722a3daafe3b4186f6b6457e060405160405180910390a350565b6000600660009054906101000a900473ffffffffffffffffffffffffffffffffffffffff16905090565b610e0a611575565b6000600860009054906101000a900473ffffffffffffffffffffffffffffffffffffffff1690508073ffffffffffffffffffffffffffffffffffffffff1663a9059cbb338373ffffffffffffffffffffffffffffffffffffffff166370a08231306040518263ffffffff1660e01b8152600401610e879190612635565b60206040518083038186803b158015610e9f57600080fd5b505afa158015610eb3573d6000803e3d6000fd5b505050506040513d601f19601f82011682018060405250810190610ed791906122f0565b6040518363ffffffff1660e01b8152600401610ef4929190612650565b602060405180830381600087803b158015610f0e57600080fd5b505af1158015610f22573d6000803e3d6000fd5b505050506040513d601f19601f82011682018060405250810190610f4691906121ef565b610f85576040517f08c379a0000000000000000000000000000000000000000000000000000000008152600401610f7c90612846565b60405180910390fd5b50565b8060ff166003811115610f9e57610f9d612df7565b5b600b60006101000a81548160ff02191690836003811115610fc257610fc1612df7565b5b021790555050565b600b60009054906101000a900460ff1681565b600c5481565b600f806000018054610ff490612cd7565b80601f016020809104026020016040519081016040528092919081815260200182805461102090612cd7565b801561106d5780601f106110425761010080835404028352916020019161106d565b820191906000526020600020905b81548152906001019060200180831161105057829003601f168201915b50505050509080600101805461108290612cd7565b80601f01602080910402602001604051908101604052809291908181526020018280546110ae90612cd7565b80156110fb5780601f106110d0576101008083540402835291602001916110fb565b820191906000526020600020905b8154815290600101906020018083116110de57829003601f168201915b5050505050905082565b600a5481565b6000611115611575565b7fc5d2460186f7233c927e7db2dcc703c0e500b653ca82273b7bfad8045d85a470600f60000160405161114891906125c6565b6040518091039020148061119457507fc5d2460186f7233c927e7db2dcc703c0e500b653ca82273b7bfad8045d85a470600f60010160405161118a91906125c6565b6040518091039020145b156111cb576040517f0e6249e200000000000000000000000000000000000000000000000000000000815260040160405180910390fd5b60006111e1600a5430633744199660e01b611607565b9050600083611225576040518060400160405280600581526020017f66616c736500000000000000000000000000000000000000000000000000000081525061125c565b6040518060400160405280600481526020017f74727565000000000000000000000000000000000000000000000000000000008152505b90506113356040518060400160405280600781526020017f6f72646572496400000000000000000000000000000000000000000000000000815250600f60000180546112a790612cd7565b80601f01602080910402602001604051908101604052809291908181526020018280546112d390612cd7565b80156113205780601f106112f557610100808354040283529160200191611320565b820191906000526020600020905b81548152906001019060200180831161130357829003601f168201915b5050505050846116389092919063ffffffff16565b61140c6040518060400160405280600881526020017f70726f7669646572000000000000000000000000000000000000000000000000815250600f600101805461137e90612cd7565b80601f01602080910402602001604051908101604052809291908181526020018280546113aa90612cd7565b80156113f75780601f106113cc576101008083540402835291602001916113f7565b820191906000526020600020905b8154815290600101906020018083116113da57829003601f168201915b5050505050846116389092919063ffffffff16565b6114566040518060400160405280600481526020017f6d6f636b0000000000000000000000000000000000000000000000000000000081525082846116389092919063ffffffff16565b6114d56040518060400160405280600481526020017f70617468000000000000000000000000000000000000000000000000000000008152506040518060400160405280600881526020017f646174612c746167000000000000000000000000000000000000000000000000815250846116389092919063ffffffff16565b6114ff827f000000000000000000000000000000000000000000000000000000000000000061166b565b92505050919050565b611510611575565b611519816116a2565b50565b60008160405160200161152f9190612609565b60405160208183030381529060405280519060200120836040516020016115569190612609565b6040516020818303038152906040528051906020012014905092915050565b600660009054906101000a900473ffffffffffffffffffffffffffffffffffffffff1673ffffffffffffffffffffffffffffffffffffffff163373ffffffffffffffffffffffffffffffffffffffff1614611605576040517f08c379a00000000000000000000000000000000000000000000000000000000081526004016115fc90612826565b60405180910390fd5b565b61160f612003565b611617612003565b61162e858585846117d1909392919063ffffffff16565b9150509392505050565b61164f82846080015161188190919063ffffffff16565b61166681846080015161188190919063ffffffff16565b505050565b600061169a600360009054906101000a900473ffffffffffffffffffffffffffffffffffffffff1684846118a6565b905092915050565b3373ffffffffffffffffffffffffffffffffffffffff168173ffffffffffffffffffffffffffffffffffffffff161415611711576040517f08c379a000000000000000000000000000000000000000000000000000000000815260040161170890612866565b60405180910390fd5b80600760006101000a81548173ffffffffffffffffffffffffffffffffffffffff021916908373ffffffffffffffffffffffffffffffffffffffff1602179055508073ffffffffffffffffffffffffffffffffffffffff16600660009054906101000a900473ffffffffffffffffffffffffffffffffffffffff1673ffffffffffffffffffffffffffffffffffffffff167fed8889f560326eb138920d842192f0eb3dd22b4f139c87a2c57538e05bae127860405160405180910390a350565b6117d9612003565b6117e98560800151610100611972565b508385600001818152505082856020019073ffffffffffffffffffffffffffffffffffffffff16908173ffffffffffffffffffffffffffffffffffffffff16815250508185604001907bffffffffffffffffffffffffffffffffffffffffffffffffffffffff191690817bffffffffffffffffffffffffffffffffffffffffffffffffffffffff191681525050849050949350505050565b61188e82600383516119dc565b6118a18183611b6190919063ffffffff16565b505050565b60008060045490506001816118bb919061295a565b6004819055506000634042994660e01b60008087600001513089604001518760018c60800151600001516040516024016118fc989796959493929190612679565b604051602081830303815290604052907bffffffffffffffffffffffffffffffffffffffffffffffffffffffff19166020820180517bffffffffffffffffffffffffffffffffffffffffffffffffffffffff8381831617835250505050905061196786838684611b83565b925050509392505050565b61197a612070565b60006020836119899190612d68565b146119b55760208261199b9190612d68565b60206119a79190612b7b565b826119b2919061295a565b91505b81836020018181525050604051808452600081528281016020016040525082905092915050565b60178167ffffffffffffffff1611611a1357611a0d8160058460ff16901b60ff161784611d2790919063ffffffff16565b50611b5c565b60ff8167ffffffffffffffff1611611a6957611a42601860058460ff16901b1784611d2790919063ffffffff16565b50611a638167ffffffffffffffff16600185611d479092919063ffffffff16565b50611b5b565b61ffff8167ffffffffffffffff1611611ac057611a99601960058460ff16901b1784611d2790919063ffffffff16565b50611aba8167ffffffffffffffff16600285611d479092919063ffffffff16565b50611b5a565b63ffffffff8167ffffffffffffffff1611611b1957611af2601a60058460ff16901b1784611d2790919063ffffffff16565b50611b138167ffffffffffffffff16600485611d479092919063ffffffff16565b50611b59565b611b36601b60058460ff16901b1784611d2790919063ffffffff16565b50611b578167ffffffffffffffff16600885611d479092919063ffffffff16565b505b5b5b5b505050565b611b69612070565b611b7b83846000015151848551611d69565b905092915050565b60003084604051602001611b989291906125dd565b604051602081830303815290604052805190602001209050846005600083815260200190815260200160002060006101000a81548173ffffffffffffffffffffffffffffffffffffffff021916908373ffffffffffffffffffffffffffffffffffffffff160217905550807fb5e6e01e79f91267dc17b4e6314d5d4d03593d2ceee0fbb452b750bd70ea5af960405160405180910390a2600260009054906101000a900473ffffffffffffffffffffffffffffffffffffffff1673ffffffffffffffffffffffffffffffffffffffff16634000aea08685856040518463ffffffff1660e01b8152600401611c8e939291906126fe565b602060405180830381600087803b158015611ca857600080fd5b505af1158015611cbc573d6000803e3d6000fd5b505050506040513d601f19601f82011682018060405250810190611ce091906121ef565b611d1f576040517f08c379a0000000000000000000000000000000000000000000000000000000008152600401611d1690612806565b60405180910390fd5b949350505050565b611d2f612070565b611d3f8384600001515184611e58565b905092915050565b611d4f612070565b611d60848560000151518585611eaf565b90509392505050565b611d71612070565b8251821115611d7f57600080fd5b84602001518285611d90919061295a565b1115611dc557611dc4856002611db588602001518887611db0919061295a565b611f3d565b611dbf9190612b21565b611f59565b5b600080865180518760208301019350808887011115611de45787860182525b60208701925050505b60208410611e2b5780518252602082611e06919061295a565b9150602081611e15919061295a565b9050602084611e249190612b7b565b9350611ded565b60006001856020036101000a03905080198251168184511681811785525050508692505050949350505050565b611e60612070565b83602001518310611e8657611e858460028660200151611e809190612b21565b611f59565b5b8351805160208583010184815381861415611ea2576001820183525b5050508390509392505050565b611eb7612070565b84602001518483611ec8919061295a565b1115611ef057611eef8560028685611ee0919061295a565b611eea9190612b21565b611f59565b5b6000600183610100611f029190612a03565b611f0c9190612b7b565b90508551838682010185831982511617815281518588011115611f2f5784870182525b505085915050949350505050565b600081831115611f4f57829050611f53565b8190505b92915050565b600082600001519050611f6c8383611972565b50611f778382611b61565b50505050565b828054611f8990612cd7565b90600052602060002090601f016020900481019282611fab5760008555611ff2565b82601f10611fc457805160ff1916838001178555611ff2565b82800160010185558215611ff2579182015b82811115611ff1578251825591602001919060010190611fd6565b5b509050611fff919061208a565b5090565b6040518060a0016040528060008019168152602001600073ffffffffffffffffffffffffffffffffffffffff16815260200160007bffffffffffffffffffffffffffffffffffffffffffffffffffffffff191681526020016000815260200161206a612070565b81525090565b604051806040016040528060608152602001600081525090565b5b808211156120a357600081600090555060010161208b565b5090565b60006120ba6120b5846128c6565b6128a1565b9050828152602081018484840111156120d6576120d5612e89565b5b6120e1848285612c95565b509392505050565b6000813590506120f881612fcd565b92915050565b60008135905061210d81612fe4565b92915050565b60008151905061212281612fe4565b92915050565b60008135905061213781612ffb565b92915050565b600082601f83011261215257612151612e84565b5b81356121628482602086016120a7565b91505092915050565b60008151905061217a81613012565b92915050565b60008135905061218f81613029565b92915050565b6000602082840312156121ab576121aa612e93565b5b60006121b9848285016120e9565b91505092915050565b6000602082840312156121d8576121d7612e93565b5b60006121e6848285016120fe565b91505092915050565b60006020828403121561220557612204612e93565b5b600061221384828501612113565b91505092915050565b6000806040838503121561223357612232612e93565b5b600061224185828601612128565b925050602083013567ffffffffffffffff81111561226257612261612e8e565b5b61226e8582860161213d565b9150509250929050565b6000806040838503121561228f5761228e612e93565b5b600083013567ffffffffffffffff8111156122ad576122ac612e8e565b5b6122b98582860161213d565b925050602083013567ffffffffffffffff8111156122da576122d9612e8e565b5b6122e68582860161213d565b9150509250929050565b60006020828403121561230657612305612e93565b5b60006123148482850161216b565b91505092915050565b60006020828403121561233357612332612e93565b5b600061234184828501612180565b91505092915050565b61235381612baf565b82525050565b61236281612bc1565b82525050565b61237181612bcd565b82525050565b61238081612bd7565b82525050565b60006123918261290c565b61239b8185612922565b93506123ab818560208601612ca4565b6123b481612e98565b840191505092915050565b600081546123cc81612cd7565b6123d68186612933565b945060018216600081146123f1576001811461240257612435565b60ff19831686528186019350612435565b61240b856128f7565b60005b8381101561242d5781548189015260018201915060208101905061240e565b838801955050505b50505092915050565b61244f61244a82612c4d565b612d3a565b82525050565b61245e81612c5f565b82525050565b600061246f82612917565b612479818561293e565b9350612489818560208601612ca4565b61249281612e98565b840191505092915050565b60006124a882612917565b6124b2818561294f565b93506124c2818560208601612ca4565b80840191505092915050565b60006124db60168361293e565b91506124e682612ec3565b602082019050919050565b60006124fe60238361293e565b915061250982612eec565b604082019050919050565b600061252160168361293e565b915061252c82612f3b565b602082019050919050565b600061254460128361293e565b915061254f82612f64565b602082019050919050565b6000612567600083612933565b915061257282612f8d565b600082019050919050565b600061258a60178361293e565b915061259582612f90565b602082019050919050565b6125a981612c36565b82525050565b6125c06125bb82612c36565b612d5e565b82525050565b60006125d282846123bf565b915081905092915050565b60006125e9828561243e565b6014820191506125f982846125af565b6020820191508190509392505050565b6000612615828461249d565b915081905092915050565b600061262b8261255a565b9150819050919050565b600060208201905061264a600083018461234a565b92915050565b6000604082019050612665600083018561234a565b61267260208301846125a0565b9392505050565b60006101008201905061268f600083018b61234a565b61269c602083018a6125a0565b6126a96040830189612368565b6126b6606083018861234a565b6126c36080830187612377565b6126d060a08301866125a0565b6126dd60c08301856125a0565b81810360e08301526126ef8184612386565b90509998505050505050505050565b6000606082019050612713600083018661234a565b61272060208301856125a0565b81810360408301526127328184612386565b9050949350505050565b60006020820190506127516000830184612359565b92915050565b600060208201905061276c6000830184612368565b92915050565b60006020820190506127876000830184612455565b92915050565b600060208201905081810360008301526127a78184612464565b905092915050565b600060408201905081810360008301526127c98185612464565b905081810360208301526127dd8184612464565b90509392505050565b600060208201905081810360008301526127ff816124ce565b9050919050565b6000602082019050818103600083015261281f816124f1565b9050919050565b6000602082019050818103600083015261283f81612514565b9050919050565b6000602082019050818103600083015261285f81612537565b9050919050565b6000602082019050818103600083015261287f8161257d565b9050919050565b600060208201905061289b60008301846125a0565b92915050565b60006128ab6128bc565b90506128b78282612d09565b919050565b6000604051905090565b600067ffffffffffffffff8211156128e1576128e0612e55565b5b6128ea82612e98565b9050602081019050919050565b60008190508160005260206000209050919050565b600081519050919050565b600081519050919050565b600082825260208201905092915050565b600081905092915050565b600082825260208201905092915050565b600081905092915050565b600061296582612c36565b915061297083612c36565b9250827fffffffffffffffffffffffffffffffffffffffffffffffffffffffffffffffff038211156129a5576129a4612d99565b5b828201905092915050565b6000808291508390505b60018511156129fa578086048111156129d6576129d5612d99565b5b60018516156129e55780820291505b80810290506129f385612eb6565b94506129ba565b94509492505050565b6000612a0e82612c36565b9150612a1983612c36565b9250612a467fffffffffffffffffffffffffffffffffffffffffffffffffffffffffffffffff8484612a4e565b905092915050565b600082612a5e5760019050612b1a565b81612a6c5760009050612b1a565b8160018114612a825760028114612a8c57612abb565b6001915050612b1a565b60ff841115612a9e57612a9d612d99565b5b8360020a915084821115612ab557612ab4612d99565b5b50612b1a565b5060208310610133831016604e8410600b8410161715612af05782820a905083811115612aeb57612aea612d99565b5b612b1a565b612afd84848460016129b0565b92509050818404811115612b1457612b13612d99565b5b81810290505b9392505050565b6000612b2c82612c36565b9150612b3783612c36565b9250817fffffffffffffffffffffffffffffffffffffffffffffffffffffffffffffffff0483118215151615612b7057612b6f612d99565b5b828202905092915050565b6000612b8682612c36565b9150612b9183612c36565b925082821015612ba457612ba3612d99565b5b828203905092915050565b6000612bba82612c16565b9050919050565b60008115159050919050565b6000819050919050565b60007fffffffff0000000000000000000000000000000000000000000000000000000082169050919050565b6000819050612c1182612fb9565b919050565b600073ffffffffffffffffffffffffffffffffffffffff82169050919050565b6000819050919050565b600060ff82169050919050565b6000612c5882612c71565b9050919050565b6000612c6a82612c03565b9050919050565b6000612c7c82612c83565b9050919050565b6000612c8e82612c16565b9050919050565b82818337600083830152505050565b60005b83811015612cc2578082015181840152602081019050612ca7565b83811115612cd1576000848401525b50505050565b60006002820490506001821680612cef57607f821691505b60208210811415612d0357612d02612e26565b5b50919050565b612d1282612e98565b810181811067ffffffffffffffff82111715612d3157612d30612e55565b5b80604052505050565b6000612d4582612d4c565b9050919050565b6000612d5782612ea9565b9050919050565b6000819050919050565b6000612d7382612c36565b9150612d7e83612c36565b925082612d8e57612d8d612dc8565b5b828206905092915050565b7f4e487b7100000000000000000000000000000000000000000000000000000000600052601160045260246000fd5b7f4e487b7100000000000000000000000000000000000000000000000000000000600052601260045260246000fd5b7f4e487b7100000000000000000000000000000000000000000000000000000000600052602160045260246000fd5b7f4e487b7100000000000000000000000000000000000000000000000000000000600052602260045260246000fd5b7f4e487b7100000000000000000000000000000000000000000000000000000000600052604160045260246000fd5b600080fd5b600080fd5b600080fd5b600080fd5b6000601f19601f8301169050919050565b60008160601b9050919050565b60008160011c9050919050565b7f4d7573742062652070726f706f736564206f776e657200000000000000000000600082015250565b7f756e61626c6520746f207472616e73666572416e6443616c6c20746f206f726160008201527f636c650000000000000000000000000000000000000000000000000000000000602082015250565b7f4f6e6c792063616c6c61626c65206279206f776e657200000000000000000000600082015250565b7f556e61626c6520746f207472616e736665720000000000000000000000000000600082015250565b50565b7f43616e6e6f74207472616e7366657220746f2073656c66000000000000000000600082015250565b60048110612fca57612fc9612df7565b5b50565b612fd681612baf565b8114612fe157600080fd5b50565b612fed81612bc1565b8114612ff857600080fd5b50565b61300481612bcd565b811461300f57600080fd5b50565b61301b81612c36565b811461302657600080fd5b50565b61303281612c40565b811461303d57600080fd5b5056fea2646970667358221220114141e6bd4767b7061e0f1d837159c68403687c0bda776644d952c595bffc1864736f6c63430008070033a2646970667358221220086e89366eba6f260cbd4e33aed32402cc9af902cef564437abaad4302cd044a64736f6c63430008070033",
  "linkReferences": {},
  "deployedLinkReferences": {}
}