{
  "_format": "hh-sol-artifact-1",
  "contractName": "AssuredPay",
  "sourceName": "contracts/AssuredPay.sol",
  "abi": [
    {
      "inputs": [
        {
          "internalType": "address",
          "name": "_vendor",
          "type": "address"
        },
        {
          "internalType": "address",
          "name": "_customer",
          "type": "address"
        },
        {
          "internalType": "uint256",
          "name": "_amount",
          "type": "uint256"
        }
      ],
      "stateMutability": "nonpayable",
      "type": "constructor"
    },
    {
      "inputs": [],
      "name": "AssuredPay__OrderNotSet",
      "type": "error"
    },
    {
      "inputs": [],
      "name": "AssuredPay__SufficientFundNotProvided",
      "type": "error"
    },
    {
      "inputs": [],
      "name": "AssuredPay__TransactionNotCompleted",
      "type": "error"
    },
    {
      "anonymous": false,
      "inputs": [
        {
          "indexed": true,
          "internalType": "bytes32",
          "name": "id",
          "type": "bytes32"
        }
      ],
      "name": "ChainlinkCancelled",
      "type": "event"
    },
    {
      "anonymous": false,
      "inputs": [
        {
          "indexed": true,
          "internalType": "bytes32",
          "name": "id",
          "type": "bytes32"
        }
      ],
      "name": "ChainlinkFulfilled",
      "type": "event"
    },
    {
      "anonymous": false,
      "inputs": [
        {
          "indexed": true,
          "internalType": "bytes32",
          "name": "id",
          "type": "bytes32"
        }
      ],
      "name": "ChainlinkRequested",
      "type": "event"
    },
    {
      "anonymous": false,
      "inputs": [
        {
          "indexed": true,
          "internalType": "address",
          "name": "from",
          "type": "address"
        },
        {
          "indexed": true,
          "internalType": "address",
          "name": "to",
          "type": "address"
        }
      ],
      "name": "OwnershipTransferRequested",
      "type": "event"
    },
    {
      "anonymous": false,
      "inputs": [
        {
          "indexed": true,
          "internalType": "address",
          "name": "from",
          "type": "address"
        },
        {
          "indexed": true,
          "internalType": "address",
          "name": "to",
          "type": "address"
        }
      ],
      "name": "OwnershipTransferred",
      "type": "event"
    },
    {
      "inputs": [],
      "name": "ERC677_LINK_ADDRESS",
      "outputs": [
        {
          "internalType": "address",
          "name": "",
          "type": "address"
        }
      ],
      "stateMutability": "view",
      "type": "function"
    },
    {
      "inputs": [],
      "name": "acceptOwnership",
      "outputs": [],
      "stateMutability": "nonpayable",
      "type": "function"
    },
    {
      "inputs": [],
      "name": "balance",
      "outputs": [
        {
          "internalType": "uint256",
          "name": "",
          "type": "uint256"
        }
      ],
      "stateMutability": "view",
      "type": "function"
    },
    {
      "inputs": [
        {
          "internalType": "bytes32",
          "name": "_requestId",
          "type": "bytes32"
        },
        {
          "internalType": "string",
          "name": "_orderStatus",
          "type": "string"
        }
      ],
      "name": "fulfill",
      "outputs": [],
      "stateMutability": "nonpayable",
      "type": "function"
    },
    {
      "inputs": [],
      "name": "getBalance",
      "outputs": [
        {
          "internalType": "uint256",
          "name": "",
          "type": "uint256"
        }
      ],
      "stateMutability": "view",
      "type": "function"
    },
    {
      "inputs": [],
      "name": "i_amount",
      "outputs": [
        {
          "internalType": "uint256",
          "name": "",
          "type": "uint256"
        }
      ],
      "stateMutability": "view",
      "type": "function"
    },
    {
      "inputs": [],
      "name": "i_customer",
      "outputs": [
        {
          "internalType": "address payable",
          "name": "",
          "type": "address"
        }
      ],
      "stateMutability": "view",
      "type": "function"
    },
    {
      "inputs": [],
      "name": "i_vendor",
      "outputs": [
        {
          "internalType": "address payable",
          "name": "",
          "type": "address"
        }
      ],
      "stateMutability": "view",
      "type": "function"
    },
    {
      "inputs": [],
      "name": "jobId",
      "outputs": [
        {
          "internalType": "bytes32",
          "name": "",
          "type": "bytes32"
        }
      ],
      "stateMutability": "view",
      "type": "function"
    },
    {
      "inputs": [],
      "name": "order",
      "outputs": [
        {
          "internalType": "string",
          "name": "orderId",
          "type": "string"
        },
        {
          "internalType": "string",
          "name": "provider",
          "type": "string"
        }
      ],
      "stateMutability": "view",
      "type": "function"
    },
    {
      "inputs": [],
      "name": "owner",
      "outputs": [
        {
          "internalType": "address",
          "name": "",
          "type": "address"
        }
      ],
      "stateMutability": "view",
      "type": "function"
    },
    {
      "inputs": [],
      "name": "pay",
      "outputs": [],
      "stateMutability": "payable",
      "type": "function"
    },
    {
      "inputs": [
        {
          "internalType": "bool",
          "name": "_mock",
          "type": "bool"
        }
      ],
      "name": "requestDeliveryStatus",
      "outputs": [
        {
          "internalType": "bytes32",
          "name": "requestId",
          "type": "bytes32"
        }
      ],
      "stateMutability": "nonpayable",
      "type": "function"
    },
    {
      "inputs": [],
      "name": "result",
      "outputs": [
        {
          "internalType": "string",
          "name": "",
          "type": "string"
        }
      ],
      "stateMutability": "view",
      "type": "function"
    },
    {
      "inputs": [],
      "name": "s_isTransactionFulfilled",
      "outputs": [
        {
          "internalType": "bool",
          "name": "",
          "type": "bool"
        }
      ],
      "stateMutability": "view",
      "type": "function"
    },
    {
      "inputs": [],
      "name": "s_lastTimestamp",
      "outputs": [
        {
          "internalType": "uint256",
          "name": "",
          "type": "uint256"
        }
      ],
      "stateMutability": "view",
      "type": "function"
    },
    {
      "inputs": [],
      "name": "s_oracleAddress",
      "outputs": [
        {
          "internalType": "address",
          "name": "",
          "type": "address"
        }
      ],
      "stateMutability": "view",
      "type": "function"
    },
    {
      "inputs": [],
      "name": "s_orderState",
      "outputs": [
        {
          "internalType": "enum AssuredPay.OrderState",
          "name": "",
          "type": "uint8"
        }
      ],
      "stateMutability": "view",
      "type": "function"
    },
    {
      "inputs": [
        {
          "internalType": "string",
          "name": "orderId",
          "type": "string"
        },
        {
          "internalType": "string",
          "name": "provider",
          "type": "string"
        }
      ],
      "name": "setOrder",
      "outputs": [],
      "stateMutability": "nonpayable",
      "type": "function"
    },
    {
      "inputs": [
        {
          "internalType": "uint8",
          "name": "state",
          "type": "uint8"
        }
      ],
      "name": "setOrderState",
      "outputs": [],
      "stateMutability": "nonpayable",
      "type": "function"
    },
    {
      "inputs": [
        {
          "internalType": "address",
          "name": "to",
          "type": "address"
        }
      ],
      "name": "transferOwnership",
      "outputs": [],
      "stateMutability": "nonpayable",
      "type": "function"
    },
    {
      "inputs": [],
      "name": "withdrawAmount",
      "outputs": [],
      "stateMutability": "nonpayable",
      "type": "function"
    },
    {
      "inputs": [],
      "name": "withdrawLink",
      "outputs": [],
      "stateMutability": "nonpayable",
      "type": "function"
    }
  ],
  "bytecode": "0x61010060405260016004557301be23585060835e02b77ef475b0cc51aa1e0709600860006101000a81548173ffffffffffffffffffffffffffffffffffffffff021916908373ffffffffffffffffffffffffffffffffffffffff160217905550736f527c87614b1cb5084820f96c95a609fe44b866600960006101000a81548173ffffffffffffffffffffffffffffffffffffffff021916908373ffffffffffffffffffffffffffffffffffffffff1602179055507f3566656239353963383964333430386161633338623062626261303536666137600a55600a670de0b6b3a76400006001620000f19190620006a6565b620000fd91906200066e565b6080908152506000600b60026101000a81548163ffffffff021916908363ffffffff1602179055503480156200013257600080fd5b5060405162003c3938038062003c3983398181016040528101906200015891906200056f565b828060008073ffffffffffffffffffffffffffffffffffffffff168273ffffffffffffffffffffffffffffffffffffffff161415620001ce576040517f08c379a0000000000000000000000000000000000000000000000000000000008152600401620001c59062000619565b60405180910390fd5b81600660006101000a81548173ffffffffffffffffffffffffffffffffffffffff021916908373ffffffffffffffffffffffffffffffffffffffff160217905550600073ffffffffffffffffffffffffffffffffffffffff168173ffffffffffffffffffffffffffffffffffffffff1614620002565762000255816200038760201b60201c565b5b5050506200028c600860009054906101000a900473ffffffffffffffffffffffffffffffffffffffff16620004b960201b60201c565b620002bf600960009054906101000a900473ffffffffffffffffffffffffffffffffffffffff16620004fd60201b60201c565b6001600b60006101000a81548160ff02191690836003811115620002e857620002e7620007a3565b5b02179055508060e081815250508273ffffffffffffffffffffffffffffffffffffffff1660a08173ffffffffffffffffffffffffffffffffffffffff1660601b815250508173ffffffffffffffffffffffffffffffffffffffff1660c08173ffffffffffffffffffffffffffffffffffffffff1660601b815250506000600b60016101000a81548160ff0219169083151502179055505050506200085d565b3373ffffffffffffffffffffffffffffffffffffffff168173ffffffffffffffffffffffffffffffffffffffff161415620003f9576040517f08c379a0000000000000000000000000000000000000000000000000000000008152600401620003f0906200063b565b60405180910390fd5b80600760006101000a81548173ffffffffffffffffffffffffffffffffffffffff021916908373ffffffffffffffffffffffffffffffffffffffff1602179055508073ffffffffffffffffffffffffffffffffffffffff16600660009054906101000a900473ffffffffffffffffffffffffffffffffffffffff1673ffffffffffffffffffffffffffffffffffffffff167fed8889f560326eb138920d842192f0eb3dd22b4f139c87a2c57538e05bae127860405160405180910390a350565b80600260006101000a81548173ffffffffffffffffffffffffffffffffffffffff021916908373ffffffffffffffffffffffffffffffffffffffff16021790555050565b80600360006101000a81548173ffffffffffffffffffffffffffffffffffffffff021916908373ffffffffffffffffffffffffffffffffffffffff16021790555050565b600081519050620005528162000829565b92915050565b600081519050620005698162000843565b92915050565b6000806000606084860312156200058b576200058a620007d2565b5b60006200059b8682870162000541565b9350506020620005ae8682870162000541565b9250506040620005c18682870162000558565b9150509250925092565b6000620005da6018836200065d565b9150620005e782620007d7565b602082019050919050565b6000620006016017836200065d565b91506200060e8262000800565b602082019050919050565b600060208201905081810360008301526200063481620005cb565b9050919050565b600060208201905081810360008301526200065681620005f2565b9050919050565b600082825260208201905092915050565b60006200067b826200073b565b915062000688836200073b565b9250826200069b576200069a62000774565b5b828204905092915050565b6000620006b3826200073b565b9150620006c0836200073b565b9250817fffffffffffffffffffffffffffffffffffffffffffffffffffffffffffffffff0483118215151615620006fc57620006fb62000745565b5b828202905092915050565b600062000714826200071b565b9050919050565b600073ffffffffffffffffffffffffffffffffffffffff82169050919050565b6000819050919050565b7f4e487b7100000000000000000000000000000000000000000000000000000000600052601160045260246000fd5b7f4e487b7100000000000000000000000000000000000000000000000000000000600052601260045260246000fd5b7f4e487b7100000000000000000000000000000000000000000000000000000000600052602160045260246000fd5b600080fd5b7f43616e6e6f7420736574206f776e657220746f207a65726f0000000000000000600082015250565b7f43616e6e6f74207472616e7366657220746f2073656c66000000000000000000600082015250565b620008348162000707565b81146200084057600080fd5b50565b6200084e816200073b565b81146200085a57600080fd5b50565b60805160a05160601c60c05160601c60e051613372620008c7600039600081816104d2015281816104fe0152610a0a015260008181610b760152610e29015260008181610a2f01528181610ae401528181610c2b01526113170152600061170901526133726000f3fe6080604052600436106101405760003560e01c806375d946f1116100b6578063b69ef8a81161006f578063b69ef8a8146103bd578063bf15071d146103e8578063c2939d9714610414578063d45706271461043f578063ee75a75e1461046a578063f2fde38b146104a757610140565b806375d946f1146102e557806379ba5097146103105780638da5cb5b146103275780638dc654a214610352578063a2422ed014610369578063aa5e3a0d1461039257610140565b8063501ad9da11610108578063501ad9da146101f9578063534844a2146102245780635eaa12211461023b578063619d229014610266578063653721471461028f5780636a91604b146102ba57610140565b806301619d3d1461014557806312065fe0146101705780631b9265b81461019b578063329bf357146101a557806337441996146101d0575b600080fd5b34801561015157600080fd5b5061015a6104d0565b6040516101679190612b21565b60405180910390f35b34801561017c57600080fd5b506101856104f4565b6040516101929190612b21565b60405180910390f35b6101a36104fc565b005b3480156101b157600080fd5b506101ba61055f565b6040516101c791906129b7565b60405180910390f35b3480156101dc57600080fd5b506101f760048036038101906101f2919061244a565b610572565b005b34801561020557600080fd5b5061020e6109dd565b60405161021b9190612895565b60405180910390f35b34801561023057600080fd5b50610239610a03565b005b34801561024757600080fd5b50610250610d15565b60405161025d9190612895565b60405180910390f35b34801561027257600080fd5b5061028d600480360381019061028891906124a6565b610d3b565b005b34801561029b57600080fd5b506102a4610d93565b6040516102b19190612a08565b60405180910390f35b3480156102c657600080fd5b506102cf610e21565b6040516102dc9190612b21565b60405180910390f35b3480156102f157600080fd5b506102fa610e27565b60405161030791906128b0565b60405180910390f35b34801561031c57600080fd5b50610325610e4b565b005b34801561033357600080fd5b5061033c610fe2565b6040516103499190612895565b60405180910390f35b34801561035e57600080fd5b5061036761100c565b005b34801561037557600080fd5b50610390600480360381019061038b919061254b565b611192565b005b34801561039e57600080fd5b506103a76111d4565b6040516103b491906129ed565b60405180910390f35b3480156103c957600080fd5b506103d26111e7565b6040516103df9190612b21565b60405180910390f35b3480156103f457600080fd5b506103fd6111ed565b60405161040b929190612a2a565b60405180910390f35b34801561042057600080fd5b5061042961130f565b60405161043691906129d2565b60405180910390f35b34801561044b57600080fd5b50610454611315565b60405161046191906128b0565b60405180910390f35b34801561047657600080fd5b50610491600480360381019061048c91906123f0565b611339565b60405161049e91906129d2565b60405180910390f35b3480156104b357600080fd5b506104ce60048036038101906104c991906123c3565b611736565b005b7f000000000000000000000000000000000000000000000000000000000000000081565b600047905090565b7f0000000000000000000000000000000000000000000000000000000000000000341015610556576040517fb1b5a20500000000000000000000000000000000000000000000000000000000815260040160405180910390fd5b34600c81905550565b600b60019054906101000a900460ff1681565b816005600082815260200190815260200160002060009054906101000a900473ffffffffffffffffffffffffffffffffffffffff1673ffffffffffffffffffffffffffffffffffffffff163373ffffffffffffffffffffffffffffffffffffffff1614610614576040517f08c379a000000000000000000000000000000000000000000000000000000000815260040161060b90612b01565b60405180910390fd5b6005600082815260200190815260200160002060006101000a81549073ffffffffffffffffffffffffffffffffffffffff0219169055807f7cc135e0cebb02c3480ae5d74d377283180a2601f8f644edf7987b009316c63a60405160405180910390a281600e908051906020019061068d9291906121ab565b50610757600e805461069e90612f84565b80601f01602080910402602001604051908101604052809291908181526020018280546106ca90612f84565b80156107175780601f106106ec57610100808354040283529160200191610717565b820191906000526020600020905b8154815290600101906020018083116106fa57829003601f168201915b50505050506040518060400160405280600981526020017f44656c697665726564000000000000000000000000000000000000000000000081525061174a565b1561078c576000600b60006101000a81548160ff02191690836003811115610782576107816130a4565b5b02179055506109d8565b610855600e805461079c90612f84565b80601f01602080910402602001604051908101604052809291908181526020018280546107c890612f84565b80156108155780601f106107ea57610100808354040283529160200191610815565b820191906000526020600020905b8154815290600101906020018083116107f857829003601f168201915b50505050506040518060400160405280600781526020017f4661696c7572650000000000000000000000000000000000000000000000000081525061174a565b1561088a576002600b60006101000a81548160ff021916908360038111156108805761087f6130a4565b5b02179055506109d7565b610953600e805461089a90612f84565b80601f01602080910402602001604051908101604052809291908181526020018280546108c690612f84565b80156109135780601f106108e857610100808354040283529160200191610913565b820191906000526020600020905b8154815290600101906020018083116108f657829003601f168201915b50505050506040518060400160405280600881526020017f6e6f74666f756e6400000000000000000000000000000000000000000000000081525061174a565b156109d6576003600b60006101000a81548160ff0219169083600381111561097e5761097d6130a4565b5b021790555060405180602001604052806000815250600f60000190805190602001906109ab9291906121ab565b5060405180602001604052806000815250600f60010190805190602001906109d49291906121ab565b505b5b5b505050565b600860009054906101000a900473ffffffffffffffffffffffffffffffffffffffff1681565b60008060007f0000000000000000000000000000000000000000000000000000000000000000471490507f000000000000000000000000000000000000000000000000000000000000000073ffffffffffffffffffffffffffffffffffffffff163373ffffffffffffffffffffffffffffffffffffffff161415610b745760006003811115610a9557610a946130a4565b5b600b60009054906101000a900460ff166003811115610ab757610ab66130a4565b5b149150600b60019054906101000a900460ff16158015610ad45750815b8015610add5750805b15610b6f577f000000000000000000000000000000000000000000000000000000000000000073ffffffffffffffffffffffffffffffffffffffff1647604051610b2690612880565b60006040518083038185875af1925050503d8060008114610b63576040519150601f19603f3d011682016040523d82523d6000602084013e610b68565b606091505b5050809350505b610cb8565b7f000000000000000000000000000000000000000000000000000000000000000073ffffffffffffffffffffffffffffffffffffffff163373ffffffffffffffffffffffffffffffffffffffff161415610cb75760026003811115610bdc57610bdb6130a4565b5b600b60009054906101000a900460ff166003811115610bfe57610bfd6130a4565b5b149150600b60019054906101000a900460ff16158015610c1b5750815b8015610c245750805b15610cb6577f000000000000000000000000000000000000000000000000000000000000000073ffffffffffffffffffffffffffffffffffffffff1647604051610c6d90612880565b60006040518083038185875af1925050503d8060008114610caa576040519150601f19603f3d011682016040523d82523d6000602084013e610caf565b606091505b5050809350505b5b5b8215610cde576001600b60016101000a81548160ff021916908315150217905550610d10565b6040517f28a4d54a00000000000000000000000000000000000000000000000000000000815260040160405180910390fd5b505050565b600960009054906101000a900473ffffffffffffffffffffffffffffffffffffffff1681565b604051806040016040528083815260200182815250600f6000820151816000019080519060200190610d6e9291906121ab565b506020820151816001019080519060200190610d8b9291906121ab565b509050505050565b600e8054610da090612f84565b80601f0160208091040260200160405190810160405280929190818152602001828054610dcc90612f84565b8015610e195780601f10610dee57610100808354040283529160200191610e19565b820191906000526020600020905b815481529060010190602001808311610dfc57829003601f168201915b505050505081565b600d5481565b7f000000000000000000000000000000000000000000000000000000000000000081565b600760009054906101000a900473ffffffffffffffffffffffffffffffffffffffff1673ffffffffffffffffffffffffffffffffffffffff163373ffffffffffffffffffffffffffffffffffffffff1614610edb576040517f08c379a0000000000000000000000000000000000000000000000000000000008152600401610ed290612a61565b60405180910390fd5b6000600660009054906101000a900473ffffffffffffffffffffffffffffffffffffffff16905033600660006101000a81548173ffffffffffffffffffffffffffffffffffffffff021916908373ffffffffffffffffffffffffffffffffffffffff1602179055506000600760006101000a81548173ffffffffffffffffffffffffffffffffffffffff021916908373ffffffffffffffffffffffffffffffffffffffff1602179055503373ffffffffffffffffffffffffffffffffffffffff168173ffffffffffffffffffffffffffffffffffffffff167f8be0079c531659141344cd1fd0a4f28419497f9722a3daafe3b4186f6b6457e060405160405180910390a350565b6000600660009054906101000a900473ffffffffffffffffffffffffffffffffffffffff16905090565b6110146117a3565b6000600860009054906101000a900473ffffffffffffffffffffffffffffffffffffffff1690508073ffffffffffffffffffffffffffffffffffffffff1663a9059cbb338373ffffffffffffffffffffffffffffffffffffffff166370a08231306040518263ffffffff1660e01b81526004016110919190612895565b60206040518083038186803b1580156110a957600080fd5b505afa1580156110bd573d6000803e3d6000fd5b505050506040513d601f19601f820116820180604052508101906110e1919061251e565b6040518363ffffffff1660e01b81526004016110fe9291906128cb565b602060405180830381600087803b15801561111857600080fd5b505af115801561112c573d6000803e3d6000fd5b505050506040513d601f19601f82011682018060405250810190611150919061241d565b61118f576040517f08c379a000000000000000000000000000000000000000000000000000000000815260040161118690612ac1565b60405180910390fd5b50565b8060ff1660038111156111a8576111a76130a4565b5b600b60006101000a81548160ff021916908360038111156111cc576111cb6130a4565b5b021790555050565b600b60009054906101000a900460ff1681565b600c5481565b600f8060000180546111fe90612f84565b80601f016020809104026020016040519081016040528092919081815260200182805461122a90612f84565b80156112775780601f1061124c57610100808354040283529160200191611277565b820191906000526020600020905b81548152906001019060200180831161125a57829003601f168201915b50505050509080600101805461128c90612f84565b80601f01602080910402602001604051908101604052809291908181526020018280546112b890612f84565b80156113055780601f106112da57610100808354040283529160200191611305565b820191906000526020600020905b8154815290600101906020018083116112e857829003601f168201915b5050505050905082565b600a5481565b7f000000000000000000000000000000000000000000000000000000000000000081565b60006113436117a3565b7fc5d2460186f7233c927e7db2dcc703c0e500b653ca82273b7bfad8045d85a470600f6000016040516113769190612826565b604051809103902014806113c257507fc5d2460186f7233c927e7db2dcc703c0e500b653ca82273b7bfad8045d85a470600f6001016040516113b89190612826565b6040518091039020145b156113f9576040517f0e6249e200000000000000000000000000000000000000000000000000000000815260040160405180910390fd5b600061140f600a5430633744199660e01b611835565b9050600083611453576040518060400160405280600581526020017f66616c736500000000000000000000000000000000000000000000000000000081525061148a565b6040518060400160405280600481526020017f74727565000000000000000000000000000000000000000000000000000000008152505b90506115636040518060400160405280600781526020017f6f72646572496400000000000000000000000000000000000000000000000000815250600f60000180546114d590612f84565b80601f016020809104026020016040519081016040528092919081815260200182805461150190612f84565b801561154e5780601f106115235761010080835404028352916020019161154e565b820191906000526020600020905b81548152906001019060200180831161153157829003601f168201915b5050505050846118669092919063ffffffff16565b61163a6040518060400160405280600881526020017f70726f7669646572000000000000000000000000000000000000000000000000815250600f60010180546115ac90612f84565b80601f01602080910402602001604051908101604052809291908181526020018280546115d890612f84565b80156116255780601f106115fa57610100808354040283529160200191611625565b820191906000526020600020905b81548152906001019060200180831161160857829003601f168201915b5050505050846118669092919063ffffffff16565b6116846040518060400160405280600481526020017f6d6f636b0000000000000000000000000000000000000000000000000000000081525082846118669092919063ffffffff16565b6117036040518060400160405280600481526020017f70617468000000000000000000000000000000000000000000000000000000008152506040518060400160405280600881526020017f646174612c746167000000000000000000000000000000000000000000000000815250846118669092919063ffffffff16565b61172d827f0000000000000000000000000000000000000000000000000000000000000000611899565b92505050919050565b61173e6117a3565b611747816118d0565b50565b60008160405160200161175d9190612869565b60405160208183030381529060405280519060200120836040516020016117849190612869565b6040516020818303038152906040528051906020012014905092915050565b600660009054906101000a900473ffffffffffffffffffffffffffffffffffffffff1673ffffffffffffffffffffffffffffffffffffffff163373ffffffffffffffffffffffffffffffffffffffff1614611833576040517f08c379a000000000000000000000000000000000000000000000000000000000815260040161182a90612aa1565b60405180910390fd5b565b61183d612231565b611845612231565b61185c858585846119ff909392919063ffffffff16565b9150509392505050565b61187d828460800151611aaf90919063ffffffff16565b611894818460800151611aaf90919063ffffffff16565b505050565b60006118c8600360009054906101000a900473ffffffffffffffffffffffffffffffffffffffff168484611ad4565b905092915050565b3373ffffffffffffffffffffffffffffffffffffffff168173ffffffffffffffffffffffffffffffffffffffff16141561193f576040517f08c379a000000000000000000000000000000000000000000000000000000000815260040161193690612ae1565b60405180910390fd5b80600760006101000a81548173ffffffffffffffffffffffffffffffffffffffff021916908373ffffffffffffffffffffffffffffffffffffffff1602179055508073ffffffffffffffffffffffffffffffffffffffff16600660009054906101000a900473ffffffffffffffffffffffffffffffffffffffff1673ffffffffffffffffffffffffffffffffffffffff167fed8889f560326eb138920d842192f0eb3dd22b4f139c87a2c57538e05bae127860405160405180910390a350565b611a07612231565b611a178560800151610100611ba0565b508385600001818152505082856020019073ffffffffffffffffffffffffffffffffffffffff16908173ffffffffffffffffffffffffffffffffffffffff16815250508185604001907bffffffffffffffffffffffffffffffffffffffffffffffffffffffff191690817bffffffffffffffffffffffffffffffffffffffffffffffffffffffff191681525050849050949350505050565b611abc8260038351611c0a565b611acf8183611d8f90919063ffffffff16565b505050565b6000806004549050600181611ae99190612bf5565b6004819055506000634042994660e01b60008087600001513089604001518760018c6080015160000151604051602401611b2a9897969594939291906128f4565b604051602081830303815290604052907bffffffffffffffffffffffffffffffffffffffffffffffffffffffff19166020820180517bffffffffffffffffffffffffffffffffffffffffffffffffffffffff83818316178352505050509050611b9586838684611db1565b925050509392505050565b611ba861229e565b6000602083611bb79190613015565b14611be357602082611bc99190613015565b6020611bd59190612e16565b82611be09190612bf5565b91505b81836020018181525050604051808452600081528281016020016040525082905092915050565b60178167ffffffffffffffff1611611c4157611c3b8160058460ff16901b60ff161784611f5590919063ffffffff16565b50611d8a565b60ff8167ffffffffffffffff1611611c9757611c70601860058460ff16901b1784611f5590919063ffffffff16565b50611c918167ffffffffffffffff16600185611f759092919063ffffffff16565b50611d89565b61ffff8167ffffffffffffffff1611611cee57611cc7601960058460ff16901b1784611f5590919063ffffffff16565b50611ce88167ffffffffffffffff16600285611f759092919063ffffffff16565b50611d88565b63ffffffff8167ffffffffffffffff1611611d4757611d20601a60058460ff16901b1784611f5590919063ffffffff16565b50611d418167ffffffffffffffff16600485611f759092919063ffffffff16565b50611d87565b611d64601b60058460ff16901b1784611f5590919063ffffffff16565b50611d858167ffffffffffffffff16600885611f759092919063ffffffff16565b505b5b5b5b505050565b611d9761229e565b611da983846000015151848551611f97565b905092915050565b60003084604051602001611dc692919061283d565b604051602081830303815290604052805190602001209050846005600083815260200190815260200160002060006101000a81548173ffffffffffffffffffffffffffffffffffffffff021916908373ffffffffffffffffffffffffffffffffffffffff160217905550807fb5e6e01e79f91267dc17b4e6314d5d4d03593d2ceee0fbb452b750bd70ea5af960405160405180910390a2600260009054906101000a900473ffffffffffffffffffffffffffffffffffffffff1673ffffffffffffffffffffffffffffffffffffffff16634000aea08685856040518463ffffffff1660e01b8152600401611ebc93929190612979565b602060405180830381600087803b158015611ed657600080fd5b505af1158015611eea573d6000803e3d6000fd5b505050506040513d601f19601f82011682018060405250810190611f0e919061241d565b611f4d576040517f08c379a0000000000000000000000000000000000000000000000000000000008152600401611f4490612a81565b60405180910390fd5b949350505050565b611f5d61229e565b611f6d8384600001515184612086565b905092915050565b611f7d61229e565b611f8e8485600001515185856120dd565b90509392505050565b611f9f61229e565b8251821115611fad57600080fd5b84602001518285611fbe9190612bf5565b1115611ff357611ff2856002611fe388602001518887611fde9190612bf5565b61216b565b611fed9190612dbc565b612187565b5b6000808651805187602083010193508088870111156120125787860182525b60208701925050505b6020841061205957805182526020826120349190612bf5565b91506020816120439190612bf5565b90506020846120529190612e16565b935061201b565b60006001856020036101000a03905080198251168184511681811785525050508692505050949350505050565b61208e61229e565b836020015183106120b4576120b384600286602001516120ae9190612dbc565b612187565b5b83518051602085830101848153818614156120d0576001820183525b5050508390509392505050565b6120e561229e565b846020015184836120f69190612bf5565b111561211e5761211d856002868561210e9190612bf5565b6121189190612dbc565b612187565b5b60006001836101006121309190612c9e565b61213a9190612e16565b9050855183868201018583198251161781528151858801111561215d5784870182525b505085915050949350505050565b60008183111561217d57829050612181565b8190505b92915050565b60008260000151905061219a8383611ba0565b506121a58382611d8f565b50505050565b8280546121b790612f84565b90600052602060002090601f0160209004810192826121d95760008555612220565b82601f106121f257805160ff1916838001178555612220565b82800160010185558215612220579182015b8281111561221f578251825591602001919060010190612204565b5b50905061222d91906122b8565b5090565b6040518060a0016040528060008019168152602001600073ffffffffffffffffffffffffffffffffffffffff16815260200160007bffffffffffffffffffffffffffffffffffffffffffffffffffffffff191681526020016000815260200161229861229e565b81525090565b604051806040016040528060608152602001600081525090565b5b808211156122d15760008160009055506001016122b9565b5090565b60006122e86122e384612b61565b612b3c565b90508281526020810184848401111561230457612303613136565b5b61230f848285612f42565b509392505050565b600081359050612326816132c9565b92915050565b60008135905061233b816132e0565b92915050565b600081519050612350816132e0565b92915050565b600081359050612365816132f7565b92915050565b600082601f8301126123805761237f613131565b5b81356123908482602086016122d5565b91505092915050565b6000815190506123a88161330e565b92915050565b6000813590506123bd81613325565b92915050565b6000602082840312156123d9576123d8613140565b5b60006123e784828501612317565b91505092915050565b60006020828403121561240657612405613140565b5b60006124148482850161232c565b91505092915050565b60006020828403121561243357612432613140565b5b600061244184828501612341565b91505092915050565b6000806040838503121561246157612460613140565b5b600061246f85828601612356565b925050602083013567ffffffffffffffff8111156124905761248f61313b565b5b61249c8582860161236b565b9150509250929050565b600080604083850312156124bd576124bc613140565b5b600083013567ffffffffffffffff8111156124db576124da61313b565b5b6124e78582860161236b565b925050602083013567ffffffffffffffff8111156125085761250761313b565b5b6125148582860161236b565b9150509250929050565b60006020828403121561253457612533613140565b5b600061254284828501612399565b91505092915050565b60006020828403121561256157612560613140565b5b600061256f848285016123ae565b91505092915050565b61258181612e5c565b82525050565b61259081612e4a565b82525050565b61259f81612e6e565b82525050565b6125ae81612e7a565b82525050565b6125bd81612e84565b82525050565b60006125ce82612ba7565b6125d88185612bbd565b93506125e8818560208601612f51565b6125f181613145565b840191505092915050565b6000815461260981612f84565b6126138186612bce565b9450600182166000811461262e576001811461263f57612672565b60ff19831686528186019350612672565b61264885612b92565b60005b8381101561266a5781548189015260018201915060208101905061264b565b838801955050505b50505092915050565b61268c61268782612efa565b612fe7565b82525050565b61269b81612f0c565b82525050565b60006126ac82612bb2565b6126b68185612bd9565b93506126c6818560208601612f51565b6126cf81613145565b840191505092915050565b60006126e582612bb2565b6126ef8185612bea565b93506126ff818560208601612f51565b80840191505092915050565b6000612718601683612bd9565b915061272382613170565b602082019050919050565b600061273b602383612bd9565b915061274682613199565b604082019050919050565b600061275e601683612bd9565b9150612769826131e8565b602082019050919050565b6000612781601283612bd9565b915061278c82613211565b602082019050919050565b60006127a4600083612bce565b91506127af8261323a565b600082019050919050565b60006127c7601783612bd9565b91506127d28261323d565b602082019050919050565b60006127ea602883612bd9565b91506127f582613266565b604082019050919050565b61280981612ee3565b82525050565b61282061281b82612ee3565b61300b565b82525050565b600061283282846125fc565b915081905092915050565b6000612849828561267b565b601482019150612859828461280f565b6020820191508190509392505050565b600061287582846126da565b915081905092915050565b600061288b82612797565b9150819050919050565b60006020820190506128aa6000830184612587565b92915050565b60006020820190506128c56000830184612578565b92915050565b60006040820190506128e06000830185612587565b6128ed6020830184612800565b9392505050565b60006101008201905061290a600083018b612587565b612917602083018a612800565b61292460408301896125a5565b6129316060830188612587565b61293e60808301876125b4565b61294b60a0830186612800565b61295860c0830185612800565b81810360e083015261296a81846125c3565b90509998505050505050505050565b600060608201905061298e6000830186612587565b61299b6020830185612800565b81810360408301526129ad81846125c3565b9050949350505050565b60006020820190506129cc6000830184612596565b92915050565b60006020820190506129e760008301846125a5565b92915050565b6000602082019050612a026000830184612692565b92915050565b60006020820190508181036000830152612a2281846126a1565b905092915050565b60006040820190508181036000830152612a4481856126a1565b90508181036020830152612a5881846126a1565b90509392505050565b60006020820190508181036000830152612a7a8161270b565b9050919050565b60006020820190508181036000830152612a9a8161272e565b9050919050565b60006020820190508181036000830152612aba81612751565b9050919050565b60006020820190508181036000830152612ada81612774565b9050919050565b60006020820190508181036000830152612afa816127ba565b9050919050565b60006020820190508181036000830152612b1a816127dd565b9050919050565b6000602082019050612b366000830184612800565b92915050565b6000612b46612b57565b9050612b528282612fb6565b919050565b6000604051905090565b600067ffffffffffffffff821115612b7c57612b7b613102565b5b612b8582613145565b9050602081019050919050565b60008190508160005260206000209050919050565b600081519050919050565b600081519050919050565b600082825260208201905092915050565b600081905092915050565b600082825260208201905092915050565b600081905092915050565b6000612c0082612ee3565b9150612c0b83612ee3565b9250827fffffffffffffffffffffffffffffffffffffffffffffffffffffffffffffffff03821115612c4057612c3f613046565b5b828201905092915050565b6000808291508390505b6001851115612c9557808604811115612c7157612c70613046565b5b6001851615612c805780820291505b8081029050612c8e85613163565b9450612c55565b94509492505050565b6000612ca982612ee3565b9150612cb483612ee3565b9250612ce17fffffffffffffffffffffffffffffffffffffffffffffffffffffffffffffffff8484612ce9565b905092915050565b600082612cf95760019050612db5565b81612d075760009050612db5565b8160018114612d1d5760028114612d2757612d56565b6001915050612db5565b60ff841115612d3957612d38613046565b5b8360020a915084821115612d5057612d4f613046565b5b50612db5565b5060208310610133831016604e8410600b8410161715612d8b5782820a905083811115612d8657612d85613046565b5b612db5565b612d988484846001612c4b565b92509050818404811115612daf57612dae613046565b5b81810290505b9392505050565b6000612dc782612ee3565b9150612dd283612ee3565b9250817fffffffffffffffffffffffffffffffffffffffffffffffffffffffffffffffff0483118215151615612e0b57612e0a613046565b5b828202905092915050565b6000612e2182612ee3565b9150612e2c83612ee3565b925082821015612e3f57612e3e613046565b5b828203905092915050565b6000612e5582612ec3565b9050919050565b6000612e6782612ec3565b9050919050565b60008115159050919050565b6000819050919050565b60007fffffffff0000000000000000000000000000000000000000000000000000000082169050919050565b6000819050612ebe826132b5565b919050565b600073ffffffffffffffffffffffffffffffffffffffff82169050919050565b6000819050919050565b600060ff82169050919050565b6000612f0582612f1e565b9050919050565b6000612f1782612eb0565b9050919050565b6000612f2982612f30565b9050919050565b6000612f3b82612ec3565b9050919050565b82818337600083830152505050565b60005b83811015612f6f578082015181840152602081019050612f54565b83811115612f7e576000848401525b50505050565b60006002820490506001821680612f9c57607f821691505b60208210811415612fb057612faf6130d3565b5b50919050565b612fbf82613145565b810181811067ffffffffffffffff82111715612fde57612fdd613102565b5b80604052505050565b6000612ff282612ff9565b9050919050565b600061300482613156565b9050919050565b6000819050919050565b600061302082612ee3565b915061302b83612ee3565b92508261303b5761303a613075565b5b828206905092915050565b7f4e487b7100000000000000000000000000000000000000000000000000000000600052601160045260246000fd5b7f4e487b7100000000000000000000000000000000000000000000000000000000600052601260045260246000fd5b7f4e487b7100000000000000000000000000000000000000000000000000000000600052602160045260246000fd5b7f4e487b7100000000000000000000000000000000000000000000000000000000600052602260045260246000fd5b7f4e487b7100000000000000000000000000000000000000000000000000000000600052604160045260246000fd5b600080fd5b600080fd5b600080fd5b600080fd5b6000601f19601f8301169050919050565b60008160601b9050919050565b60008160011c9050919050565b7f4d7573742062652070726f706f736564206f776e657200000000000000000000600082015250565b7f756e61626c6520746f207472616e73666572416e6443616c6c20746f206f726160008201527f636c650000000000000000000000000000000000000000000000000000000000602082015250565b7f4f6e6c792063616c6c61626c65206279206f776e657200000000000000000000600082015250565b7f556e61626c6520746f207472616e736665720000000000000000000000000000600082015250565b50565b7f43616e6e6f74207472616e7366657220746f2073656c66000000000000000000600082015250565b7f536f75726365206d75737420626520746865206f7261636c65206f662074686560008201527f2072657175657374000000000000000000000000000000000000000000000000602082015250565b600481106132c6576132c56130a4565b5b50565b6132d281612e4a565b81146132dd57600080fd5b50565b6132e981612e6e565b81146132f457600080fd5b50565b61330081612e7a565b811461330b57600080fd5b50565b61331781612ee3565b811461332257600080fd5b50565b61332e81612eed565b811461333957600080fd5b5056fea2646970667358221220b18f86b96723b0caa33cd9efa767d67f45268e542668473d9fa2744727bdd93464736f6c63430008070033",
  "linkReferences": {},
  "deployedLinkReferences": {}
}