{
  "_format": "hh-sol-artifact-1",
  "contractName": "AssuredPay",
  "sourceName": "contracts/AssuredPay.sol",
  "abi": [
    {
      "inputs": [
        {
          "internalType": "address",
          "name": "_vendor",
          "type": "address"
        },
        {
          "internalType": "address",
          "name": "_customer",
          "type": "address"
        },
        {
          "internalType": "uint256",
          "name": "_amount",
          "type": "uint256"
        }
      ],
      "stateMutability": "nonpayable",
      "type": "constructor"
    },
    {
      "inputs": [],
      "name": "AssuredPay__OrderNotSet",
      "type": "error"
    },
    {
      "inputs": [],
      "name": "AssuredPay__SufficientFundNotProvided",
      "type": "error"
    },
    {
      "inputs": [],
      "name": "AssuredPay__TransactionNotCompleted",
      "type": "error"
    },
    {
      "anonymous": false,
      "inputs": [
        {
          "indexed": true,
          "internalType": "bytes32",
          "name": "id",
          "type": "bytes32"
        }
      ],
      "name": "ChainlinkCancelled",
      "type": "event"
    },
    {
      "anonymous": false,
      "inputs": [
        {
          "indexed": true,
          "internalType": "bytes32",
          "name": "id",
          "type": "bytes32"
        }
      ],
      "name": "ChainlinkFulfilled",
      "type": "event"
    },
    {
      "anonymous": false,
      "inputs": [
        {
          "indexed": true,
          "internalType": "bytes32",
          "name": "id",
          "type": "bytes32"
        }
      ],
      "name": "ChainlinkRequested",
      "type": "event"
    },
    {
      "inputs": [],
      "name": "ERC677_LINK_ADDRESS",
      "outputs": [
        {
          "internalType": "address",
          "name": "",
          "type": "address"
        }
      ],
      "stateMutability": "view",
      "type": "function"
    },
    {
      "inputs": [],
      "name": "balance",
      "outputs": [
        {
          "internalType": "uint256",
          "name": "",
          "type": "uint256"
        }
      ],
      "stateMutability": "view",
      "type": "function"
    },
    {
      "inputs": [
        {
          "internalType": "bytes32",
          "name": "_requestId",
          "type": "bytes32"
        },
        {
          "internalType": "string",
          "name": "_orderStatus",
          "type": "string"
        }
      ],
      "name": "fulfill",
      "outputs": [],
      "stateMutability": "nonpayable",
      "type": "function"
    },
    {
      "inputs": [],
      "name": "getBalance",
      "outputs": [
        {
          "internalType": "uint256",
          "name": "",
          "type": "uint256"
        }
      ],
      "stateMutability": "view",
      "type": "function"
    },
    {
      "inputs": [],
      "name": "i_amount",
      "outputs": [
        {
          "internalType": "uint256",
          "name": "",
          "type": "uint256"
        }
      ],
      "stateMutability": "view",
      "type": "function"
    },
    {
      "inputs": [],
      "name": "i_customer",
      "outputs": [
        {
          "internalType": "address payable",
          "name": "",
          "type": "address"
        }
      ],
      "stateMutability": "view",
      "type": "function"
    },
    {
      "inputs": [],
      "name": "i_vendor",
      "outputs": [
        {
          "internalType": "address payable",
          "name": "",
          "type": "address"
        }
      ],
      "stateMutability": "view",
      "type": "function"
    },
    {
      "inputs": [],
      "name": "jobId",
      "outputs": [
        {
          "internalType": "bytes32",
          "name": "",
          "type": "bytes32"
        }
      ],
      "stateMutability": "view",
      "type": "function"
    },
    {
      "inputs": [],
      "name": "order",
      "outputs": [
        {
          "internalType": "string",
          "name": "orderId",
          "type": "string"
        },
        {
          "internalType": "string",
          "name": "provider",
          "type": "string"
        }
      ],
      "stateMutability": "view",
      "type": "function"
    },
    {
      "inputs": [],
      "name": "pay",
      "outputs": [],
      "stateMutability": "payable",
      "type": "function"
    },
    {
      "inputs": [
        {
          "internalType": "bool",
          "name": "_mock",
          "type": "bool"
        }
      ],
      "name": "requestDeliveryStatus",
      "outputs": [
        {
          "internalType": "bytes32",
          "name": "requestId",
          "type": "bytes32"
        }
      ],
      "stateMutability": "nonpayable",
      "type": "function"
    },
    {
      "inputs": [],
      "name": "result",
      "outputs": [
        {
          "internalType": "string",
          "name": "",
          "type": "string"
        }
      ],
      "stateMutability": "view",
      "type": "function"
    },
    {
      "inputs": [],
      "name": "s_isTransactionFulfilled",
      "outputs": [
        {
          "internalType": "bool",
          "name": "",
          "type": "bool"
        }
      ],
      "stateMutability": "view",
      "type": "function"
    },
    {
      "inputs": [],
      "name": "s_lastTimestamp",
      "outputs": [
        {
          "internalType": "uint256",
          "name": "",
          "type": "uint256"
        }
      ],
      "stateMutability": "view",
      "type": "function"
    },
    {
      "inputs": [],
      "name": "s_oracleAddress",
      "outputs": [
        {
          "internalType": "address",
          "name": "",
          "type": "address"
        }
      ],
      "stateMutability": "view",
      "type": "function"
    },
    {
      "inputs": [],
      "name": "s_orderState",
      "outputs": [
        {
          "internalType": "enum AssuredPay.OrderState",
          "name": "",
          "type": "uint8"
        }
      ],
      "stateMutability": "view",
      "type": "function"
    },
    {
      "inputs": [
        {
          "internalType": "string",
          "name": "orderId",
          "type": "string"
        },
        {
          "internalType": "string",
          "name": "provider",
          "type": "string"
        }
      ],
      "name": "setOrder",
      "outputs": [],
      "stateMutability": "nonpayable",
      "type": "function"
    },
    {
      "inputs": [
        {
          "internalType": "uint8",
          "name": "state",
          "type": "uint8"
        }
      ],
      "name": "setOrderState",
      "outputs": [],
      "stateMutability": "nonpayable",
      "type": "function"
    },
    {
      "inputs": [],
      "name": "withdrawAmount",
      "outputs": [],
      "stateMutability": "nonpayable",
      "type": "function"
    },
    {
      "inputs": [],
      "name": "withdrawLink",
      "outputs": [],
      "stateMutability": "nonpayable",
      "type": "function"
    }
  ],
  "bytecode": "0x61010060405260016004557301be23585060835e02b77ef475b0cc51aa1e0709600660006101000a81548173ffffffffffffffffffffffffffffffffffffffff021916908373ffffffffffffffffffffffffffffffffffffffff160217905550736f527c87614b1cb5084820f96c95a609fe44b866600760006101000a81548173ffffffffffffffffffffffffffffffffffffffff021916908373ffffffffffffffffffffffffffffffffffffffff1602179055507f3566656239353963383964333430386161633338623062626261303536666137600855600a670de0b6b3a76400006001620000f19190620003d0565b620000fd919062000398565b6080908152506000600960026101000a81548163ffffffff021916908363ffffffff1602179055503480156200013257600080fd5b50604051620033423803806200334283398181016040528101906200015891906200033c565b6200018b600660009054906101000a900473ffffffffffffffffffffffffffffffffffffffff166200028660201b60201c565b620001be600760009054906101000a900473ffffffffffffffffffffffffffffffffffffffff16620002ca60201b60201c565b6001600960006101000a81548160ff02191690836003811115620001e757620001e6620004cd565b5b02179055508060e081815250508273ffffffffffffffffffffffffffffffffffffffff1660a08173ffffffffffffffffffffffffffffffffffffffff1660601b815250508173ffffffffffffffffffffffffffffffffffffffff1660c08173ffffffffffffffffffffffffffffffffffffffff1660601b815250506000600960016101000a81548160ff02191690831515021790555050505062000535565b80600260006101000a81548173ffffffffffffffffffffffffffffffffffffffff021916908373ffffffffffffffffffffffffffffffffffffffff16021790555050565b80600360006101000a81548173ffffffffffffffffffffffffffffffffffffffff021916908373ffffffffffffffffffffffffffffffffffffffff16021790555050565b6000815190506200031f8162000501565b92915050565b60008151905062000336816200051b565b92915050565b600080600060608486031215620003585762000357620004fc565b5b600062000368868287016200030e565b93505060206200037b868287016200030e565b92505060406200038e8682870162000325565b9150509250925092565b6000620003a58262000465565b9150620003b28362000465565b925082620003c557620003c46200049e565b5b828204905092915050565b6000620003dd8262000465565b9150620003ea8362000465565b9250817fffffffffffffffffffffffffffffffffffffffffffffffffffffffffffffffff04831182151516156200042657620004256200046f565b5b828202905092915050565b60006200043e8262000445565b9050919050565b600073ffffffffffffffffffffffffffffffffffffffff82169050919050565b6000819050919050565b7f4e487b7100000000000000000000000000000000000000000000000000000000600052601160045260246000fd5b7f4e487b7100000000000000000000000000000000000000000000000000000000600052601260045260246000fd5b7f4e487b7100000000000000000000000000000000000000000000000000000000600052602160045260246000fd5b600080fd5b6200050c8162000431565b81146200051857600080fd5b50565b620005268162000465565b81146200053257600080fd5b50565b60805160a05160601c60c05160601c60e051612da36200059f6000396000818161044601528181610472015261097e015260008181610aea0152610d9d0152600081816109a301528181610a5801528181610b9f01526110c2015260006114ac0152612da36000f3fe60806040526004361061011f5760003560e01c80636a91604b116100a0578063b69ef8a811610064578063b69ef8a81461035a578063bf15071d14610385578063c2939d97146103b1578063d4570627146103dc578063ee75a75e146104075761011f565b80636a91604b1461029957806375d946f1146102c45780638dc654a2146102ef578063a2422ed014610306578063aa5e3a0d1461032f5761011f565b8063501ad9da116100e7578063501ad9da146101d8578063534844a2146102035780635eaa12211461021a578063619d229014610245578063653721471461026e5761011f565b806301619d3d1461012457806312065fe01461014f5780631b9265b81461017a578063329bf3571461018457806337441996146101af575b600080fd5b34801561013057600080fd5b50610139610444565b60405161014691906125e4565b60405180910390f35b34801561015b57600080fd5b50610164610468565b60405161017191906125e4565b60405180910390f35b610182610470565b005b34801561019057600080fd5b506101996104d3565b6040516101a691906124da565b60405180910390f35b3480156101bb57600080fd5b506101d660048036038101906101d19190611fd6565b6104e6565b005b3480156101e457600080fd5b506101ed610951565b6040516101fa91906123b8565b60405180910390f35b34801561020f57600080fd5b50610218610977565b005b34801561022657600080fd5b5061022f610c89565b60405161023c91906123b8565b60405180910390f35b34801561025157600080fd5b5061026c60048036038101906102679190612032565b610caf565b005b34801561027a57600080fd5b50610283610d07565b604051610290919061252b565b60405180910390f35b3480156102a557600080fd5b506102ae610d95565b6040516102bb91906125e4565b60405180910390f35b3480156102d057600080fd5b506102d9610d9b565b6040516102e691906123d3565b60405180910390f35b3480156102fb57600080fd5b50610304610dbf565b005b34801561031257600080fd5b5061032d600480360381019061032891906120d7565b610f3d565b005b34801561033b57600080fd5b50610344610f7f565b6040516103519190612510565b60405180910390f35b34801561036657600080fd5b5061036f610f92565b60405161037c91906125e4565b60405180910390f35b34801561039157600080fd5b5061039a610f98565b6040516103a892919061254d565b60405180910390f35b3480156103bd57600080fd5b506103c66110ba565b6040516103d391906124f5565b60405180910390f35b3480156103e857600080fd5b506103f16110c0565b6040516103fe91906123d3565b60405180910390f35b34801561041357600080fd5b5061042e60048036038101906104299190611f7c565b6110e4565b60405161043b91906124f5565b60405180910390f35b7f000000000000000000000000000000000000000000000000000000000000000081565b600047905090565b7f00000000000000000000000000000000000000000000000000000000000000003410156104ca576040517fb1b5a20500000000000000000000000000000000000000000000000000000000815260040160405180910390fd5b34600a81905550565b600960019054906101000a900460ff1681565b816005600082815260200190815260200160002060009054906101000a900473ffffffffffffffffffffffffffffffffffffffff1673ffffffffffffffffffffffffffffffffffffffff163373ffffffffffffffffffffffffffffffffffffffff1614610588576040517f08c379a000000000000000000000000000000000000000000000000000000000815260040161057f906125c4565b60405180910390fd5b6005600082815260200190815260200160002060006101000a81549073ffffffffffffffffffffffffffffffffffffffff0219169055807f7cc135e0cebb02c3480ae5d74d377283180a2601f8f644edf7987b009316c63a60405160405180910390a281600c9080519060200190610601929190611d79565b506106cb600c805461061290612a47565b80601f016020809104026020016040519081016040528092919081815260200182805461063e90612a47565b801561068b5780601f106106605761010080835404028352916020019161068b565b820191906000526020600020905b81548152906001019060200180831161066e57829003601f168201915b50505050506040518060400160405280600981526020017f44656c69766572656400000000000000000000000000000000000000000000008152506114d9565b15610700576000600960006101000a81548160ff021916908360038111156106f6576106f5612b67565b5b021790555061094c565b6107c9600c805461071090612a47565b80601f016020809104026020016040519081016040528092919081815260200182805461073c90612a47565b80156107895780601f1061075e57610100808354040283529160200191610789565b820191906000526020600020905b81548152906001019060200180831161076c57829003601f168201915b50505050506040518060400160405280600781526020017f4661696c757265000000000000000000000000000000000000000000000000008152506114d9565b156107fe576002600960006101000a81548160ff021916908360038111156107f4576107f3612b67565b5b021790555061094b565b6108c7600c805461080e90612a47565b80601f016020809104026020016040519081016040528092919081815260200182805461083a90612a47565b80156108875780601f1061085c57610100808354040283529160200191610887565b820191906000526020600020905b81548152906001019060200180831161086a57829003601f168201915b50505050506040518060400160405280600881526020017f6e6f74666f756e640000000000000000000000000000000000000000000000008152506114d9565b1561094a576003600960006101000a81548160ff021916908360038111156108f2576108f1612b67565b5b021790555060405180602001604052806000815250600d600001908051906020019061091f929190611d79565b5060405180602001604052806000815250600d6001019080519060200190610948929190611d79565b505b5b5b505050565b600660009054906101000a900473ffffffffffffffffffffffffffffffffffffffff1681565b60008060007f0000000000000000000000000000000000000000000000000000000000000000471490507f000000000000000000000000000000000000000000000000000000000000000073ffffffffffffffffffffffffffffffffffffffff163373ffffffffffffffffffffffffffffffffffffffff161415610ae85760006003811115610a0957610a08612b67565b5b600960009054906101000a900460ff166003811115610a2b57610a2a612b67565b5b149150600960019054906101000a900460ff16158015610a485750815b8015610a515750805b15610ae3577f000000000000000000000000000000000000000000000000000000000000000073ffffffffffffffffffffffffffffffffffffffff1647604051610a9a906123a3565b60006040518083038185875af1925050503d8060008114610ad7576040519150601f19603f3d011682016040523d82523d6000602084013e610adc565b606091505b5050809350505b610c2c565b7f000000000000000000000000000000000000000000000000000000000000000073ffffffffffffffffffffffffffffffffffffffff163373ffffffffffffffffffffffffffffffffffffffff161415610c2b5760026003811115610b5057610b4f612b67565b5b600960009054906101000a900460ff166003811115610b7257610b71612b67565b5b149150600960019054906101000a900460ff16158015610b8f5750815b8015610b985750805b15610c2a577f000000000000000000000000000000000000000000000000000000000000000073ffffffffffffffffffffffffffffffffffffffff1647604051610be1906123a3565b60006040518083038185875af1925050503d8060008114610c1e576040519150601f19603f3d011682016040523d82523d6000602084013e610c23565b606091505b5050809350505b5b5b8215610c52576001600960016101000a81548160ff021916908315150217905550610c84565b6040517f28a4d54a00000000000000000000000000000000000000000000000000000000815260040160405180910390fd5b505050565b600760009054906101000a900473ffffffffffffffffffffffffffffffffffffffff1681565b604051806040016040528083815260200182815250600d6000820151816000019080519060200190610ce2929190611d79565b506020820151816001019080519060200190610cff929190611d79565b509050505050565b600c8054610d1490612a47565b80601f0160208091040260200160405190810160405280929190818152602001828054610d4090612a47565b8015610d8d5780601f10610d6257610100808354040283529160200191610d8d565b820191906000526020600020905b815481529060010190602001808311610d7057829003601f168201915b505050505081565b600b5481565b7f000000000000000000000000000000000000000000000000000000000000000081565b6000600660009054906101000a900473ffffffffffffffffffffffffffffffffffffffff1690508073ffffffffffffffffffffffffffffffffffffffff1663a9059cbb338373ffffffffffffffffffffffffffffffffffffffff166370a08231306040518263ffffffff1660e01b8152600401610e3c91906123b8565b60206040518083038186803b158015610e5457600080fd5b505afa158015610e68573d6000803e3d6000fd5b505050506040513d601f19601f82011682018060405250810190610e8c91906120aa565b6040518363ffffffff1660e01b8152600401610ea99291906123ee565b602060405180830381600087803b158015610ec357600080fd5b505af1158015610ed7573d6000803e3d6000fd5b505050506040513d601f19601f82011682018060405250810190610efb9190611fa9565b610f3a576040517f08c379a0000000000000000000000000000000000000000000000000000000008152600401610f31906125a4565b60405180910390fd5b50565b8060ff166003811115610f5357610f52612b67565b5b600960006101000a81548160ff02191690836003811115610f7757610f76612b67565b5b021790555050565b600960009054906101000a900460ff1681565b600a5481565b600d806000018054610fa990612a47565b80601f0160208091040260200160405190810160405280929190818152602001828054610fd590612a47565b80156110225780601f10610ff757610100808354040283529160200191611022565b820191906000526020600020905b81548152906001019060200180831161100557829003601f168201915b50505050509080600101805461103790612a47565b80601f016020809104026020016040519081016040528092919081815260200182805461106390612a47565b80156110b05780601f10611085576101008083540402835291602001916110b0565b820191906000526020600020905b81548152906001019060200180831161109357829003601f168201915b5050505050905082565b60085481565b7f000000000000000000000000000000000000000000000000000000000000000081565b60007fc5d2460186f7233c927e7db2dcc703c0e500b653ca82273b7bfad8045d85a470600d6000016040516111199190612349565b6040518091039020148061116557507fc5d2460186f7233c927e7db2dcc703c0e500b653ca82273b7bfad8045d85a470600d60010160405161115b9190612349565b6040518091039020145b1561119c576040517f0e6249e200000000000000000000000000000000000000000000000000000000815260040160405180910390fd5b60006111b260085430633744199660e01b611532565b90506000836111f6576040518060400160405280600581526020017f66616c736500000000000000000000000000000000000000000000000000000081525061122d565b6040518060400160405280600481526020017f74727565000000000000000000000000000000000000000000000000000000008152505b90506113066040518060400160405280600781526020017f6f72646572496400000000000000000000000000000000000000000000000000815250600d600001805461127890612a47565b80601f01602080910402602001604051908101604052809291908181526020018280546112a490612a47565b80156112f15780601f106112c6576101008083540402835291602001916112f1565b820191906000526020600020905b8154815290600101906020018083116112d457829003601f168201915b5050505050846115639092919063ffffffff16565b6113dd6040518060400160405280600881526020017f70726f7669646572000000000000000000000000000000000000000000000000815250600d600101805461134f90612a47565b80601f016020809104026020016040519081016040528092919081815260200182805461137b90612a47565b80156113c85780601f1061139d576101008083540402835291602001916113c8565b820191906000526020600020905b8154815290600101906020018083116113ab57829003601f168201915b5050505050846115639092919063ffffffff16565b6114276040518060400160405280600481526020017f6d6f636b0000000000000000000000000000000000000000000000000000000081525082846115639092919063ffffffff16565b6114a66040518060400160405280600481526020017f70617468000000000000000000000000000000000000000000000000000000008152506040518060400160405280600881526020017f646174612c746167000000000000000000000000000000000000000000000000815250846115639092919063ffffffff16565b6114d0827f0000000000000000000000000000000000000000000000000000000000000000611596565b92505050919050565b6000816040516020016114ec919061238c565b6040516020818303038152906040528051906020012083604051602001611513919061238c565b6040516020818303038152906040528051906020012014905092915050565b61153a611dff565b611542611dff565b611559858585846115cd909392919063ffffffff16565b9150509392505050565b61157a82846080015161167d90919063ffffffff16565b61159181846080015161167d90919063ffffffff16565b505050565b60006115c5600360009054906101000a900473ffffffffffffffffffffffffffffffffffffffff1684846116a2565b905092915050565b6115d5611dff565b6115e5856080015161010061176e565b508385600001818152505082856020019073ffffffffffffffffffffffffffffffffffffffff16908173ffffffffffffffffffffffffffffffffffffffff16815250508185604001907bffffffffffffffffffffffffffffffffffffffffffffffffffffffff191690817bffffffffffffffffffffffffffffffffffffffffffffffffffffffff191681525050849050949350505050565b61168a82600383516117d8565b61169d818361195d90919063ffffffff16565b505050565b60008060045490506001816116b791906126b8565b6004819055506000634042994660e01b60008087600001513089604001518760018c60800151600001516040516024016116f8989796959493929190612417565b604051602081830303815290604052907bffffffffffffffffffffffffffffffffffffffffffffffffffffffff19166020820180517bffffffffffffffffffffffffffffffffffffffffffffffffffffffff838183161783525050505090506117638683868461197f565b925050509392505050565b611776611e6c565b60006020836117859190612ad8565b146117b1576020826117979190612ad8565b60206117a391906128d9565b826117ae91906126b8565b91505b81836020018181525050604051808452600081528281016020016040525082905092915050565b60178167ffffffffffffffff161161180f576118098160058460ff16901b60ff161784611b2390919063ffffffff16565b50611958565b60ff8167ffffffffffffffff16116118655761183e601860058460ff16901b1784611b2390919063ffffffff16565b5061185f8167ffffffffffffffff16600185611b439092919063ffffffff16565b50611957565b61ffff8167ffffffffffffffff16116118bc57611895601960058460ff16901b1784611b2390919063ffffffff16565b506118b68167ffffffffffffffff16600285611b439092919063ffffffff16565b50611956565b63ffffffff8167ffffffffffffffff1611611915576118ee601a60058460ff16901b1784611b2390919063ffffffff16565b5061190f8167ffffffffffffffff16600485611b439092919063ffffffff16565b50611955565b611932601b60058460ff16901b1784611b2390919063ffffffff16565b506119538167ffffffffffffffff16600885611b439092919063ffffffff16565b505b5b5b5b505050565b611965611e6c565b61197783846000015151848551611b65565b905092915050565b60003084604051602001611994929190612360565b604051602081830303815290604052805190602001209050846005600083815260200190815260200160002060006101000a81548173ffffffffffffffffffffffffffffffffffffffff021916908373ffffffffffffffffffffffffffffffffffffffff160217905550807fb5e6e01e79f91267dc17b4e6314d5d4d03593d2ceee0fbb452b750bd70ea5af960405160405180910390a2600260009054906101000a900473ffffffffffffffffffffffffffffffffffffffff1673ffffffffffffffffffffffffffffffffffffffff16634000aea08685856040518463ffffffff1660e01b8152600401611a8a9392919061249c565b602060405180830381600087803b158015611aa457600080fd5b505af1158015611ab8573d6000803e3d6000fd5b505050506040513d601f19601f82011682018060405250810190611adc9190611fa9565b611b1b576040517f08c379a0000000000000000000000000000000000000000000000000000000008152600401611b1290612584565b60405180910390fd5b949350505050565b611b2b611e6c565b611b3b8384600001515184611c54565b905092915050565b611b4b611e6c565b611b5c848560000151518585611cab565b90509392505050565b611b6d611e6c565b8251821115611b7b57600080fd5b84602001518285611b8c91906126b8565b1115611bc157611bc0856002611bb188602001518887611bac91906126b8565b611d39565b611bbb919061287f565b611d55565b5b600080865180518760208301019350808887011115611be05787860182525b60208701925050505b60208410611c275780518252602082611c0291906126b8565b9150602081611c1191906126b8565b9050602084611c2091906128d9565b9350611be9565b60006001856020036101000a03905080198251168184511681811785525050508692505050949350505050565b611c5c611e6c565b83602001518310611c8257611c818460028660200151611c7c919061287f565b611d55565b5b8351805160208583010184815381861415611c9e576001820183525b5050508390509392505050565b611cb3611e6c565b84602001518483611cc491906126b8565b1115611cec57611ceb8560028685611cdc91906126b8565b611ce6919061287f565b611d55565b5b6000600183610100611cfe9190612761565b611d0891906128d9565b90508551838682010185831982511617815281518588011115611d2b5784870182525b505085915050949350505050565b600081831115611d4b57829050611d4f565b8190505b92915050565b600082600001519050611d68838361176e565b50611d73838261195d565b50505050565b828054611d8590612a47565b90600052602060002090601f016020900481019282611da75760008555611dee565b82601f10611dc057805160ff1916838001178555611dee565b82800160010185558215611dee579182015b82811115611ded578251825591602001919060010190611dd2565b5b509050611dfb9190611e86565b5090565b6040518060a0016040528060008019168152602001600073ffffffffffffffffffffffffffffffffffffffff16815260200160007bffffffffffffffffffffffffffffffffffffffffffffffffffffffff1916815260200160008152602001611e66611e6c565b81525090565b604051806040016040528060608152602001600081525090565b5b80821115611e9f576000816000905550600101611e87565b5090565b6000611eb6611eb184612624565b6125ff565b905082815260208101848484011115611ed257611ed1612bf9565b5b611edd848285612a05565b509392505050565b600081359050611ef481612d11565b92915050565b600081519050611f0981612d11565b92915050565b600081359050611f1e81612d28565b92915050565b600082601f830112611f3957611f38612bf4565b5b8135611f49848260208601611ea3565b91505092915050565b600081519050611f6181612d3f565b92915050565b600081359050611f7681612d56565b92915050565b600060208284031215611f9257611f91612c03565b5b6000611fa084828501611ee5565b91505092915050565b600060208284031215611fbf57611fbe612c03565b5b6000611fcd84828501611efa565b91505092915050565b60008060408385031215611fed57611fec612c03565b5b6000611ffb85828601611f0f565b925050602083013567ffffffffffffffff81111561201c5761201b612bfe565b5b61202885828601611f24565b9150509250929050565b6000806040838503121561204957612048612c03565b5b600083013567ffffffffffffffff81111561206757612066612bfe565b5b61207385828601611f24565b925050602083013567ffffffffffffffff81111561209457612093612bfe565b5b6120a085828601611f24565b9150509250929050565b6000602082840312156120c0576120bf612c03565b5b60006120ce84828501611f52565b91505092915050565b6000602082840312156120ed576120ec612c03565b5b60006120fb84828501611f67565b91505092915050565b61210d8161291f565b82525050565b61211c8161290d565b82525050565b61212b81612931565b82525050565b61213a8161293d565b82525050565b61214981612947565b82525050565b600061215a8261266a565b6121648185612680565b9350612174818560208601612a14565b61217d81612c08565b840191505092915050565b6000815461219581612a47565b61219f8186612691565b945060018216600081146121ba57600181146121cb576121fe565b60ff198316865281860193506121fe565b6121d485612655565b60005b838110156121f6578154818901526001820191506020810190506121d7565b838801955050505b50505092915050565b612218612213826129bd565b612aaa565b82525050565b612227816129cf565b82525050565b600061223882612675565b612242818561269c565b9350612252818560208601612a14565b61225b81612c08565b840191505092915050565b600061227182612675565b61227b81856126ad565b935061228b818560208601612a14565b80840191505092915050565b60006122a460238361269c565b91506122af82612c33565b604082019050919050565b60006122c760128361269c565b91506122d282612c82565b602082019050919050565b60006122ea600083612691565b91506122f582612cab565b600082019050919050565b600061230d60288361269c565b915061231882612cae565b604082019050919050565b61232c816129a6565b82525050565b61234361233e826129a6565b612ace565b82525050565b60006123558284612188565b915081905092915050565b600061236c8285612207565b60148201915061237c8284612332565b6020820191508190509392505050565b60006123988284612266565b915081905092915050565b60006123ae826122dd565b9150819050919050565b60006020820190506123cd6000830184612113565b92915050565b60006020820190506123e86000830184612104565b92915050565b60006040820190506124036000830185612113565b6124106020830184612323565b9392505050565b60006101008201905061242d600083018b612113565b61243a602083018a612323565b6124476040830189612131565b6124546060830188612113565b6124616080830187612140565b61246e60a0830186612323565b61247b60c0830185612323565b81810360e083015261248d818461214f565b90509998505050505050505050565b60006060820190506124b16000830186612113565b6124be6020830185612323565b81810360408301526124d0818461214f565b9050949350505050565b60006020820190506124ef6000830184612122565b92915050565b600060208201905061250a6000830184612131565b92915050565b6000602082019050612525600083018461221e565b92915050565b60006020820190508181036000830152612545818461222d565b905092915050565b60006040820190508181036000830152612567818561222d565b9050818103602083015261257b818461222d565b90509392505050565b6000602082019050818103600083015261259d81612297565b9050919050565b600060208201905081810360008301526125bd816122ba565b9050919050565b600060208201905081810360008301526125dd81612300565b9050919050565b60006020820190506125f96000830184612323565b92915050565b600061260961261a565b90506126158282612a79565b919050565b6000604051905090565b600067ffffffffffffffff82111561263f5761263e612bc5565b5b61264882612c08565b9050602081019050919050565b60008190508160005260206000209050919050565b600081519050919050565b600081519050919050565b600082825260208201905092915050565b600081905092915050565b600082825260208201905092915050565b600081905092915050565b60006126c3826129a6565b91506126ce836129a6565b9250827fffffffffffffffffffffffffffffffffffffffffffffffffffffffffffffffff0382111561270357612702612b09565b5b828201905092915050565b6000808291508390505b60018511156127585780860481111561273457612733612b09565b5b60018516156127435780820291505b808102905061275185612c26565b9450612718565b94509492505050565b600061276c826129a6565b9150612777836129a6565b92506127a47fffffffffffffffffffffffffffffffffffffffffffffffffffffffffffffffff84846127ac565b905092915050565b6000826127bc5760019050612878565b816127ca5760009050612878565b81600181146127e057600281146127ea57612819565b6001915050612878565b60ff8411156127fc576127fb612b09565b5b8360020a91508482111561281357612812612b09565b5b50612878565b5060208310610133831016604e8410600b841016171561284e5782820a90508381111561284957612848612b09565b5b612878565b61285b848484600161270e565b9250905081840481111561287257612871612b09565b5b81810290505b9392505050565b600061288a826129a6565b9150612895836129a6565b9250817fffffffffffffffffffffffffffffffffffffffffffffffffffffffffffffffff04831182151516156128ce576128cd612b09565b5b828202905092915050565b60006128e4826129a6565b91506128ef836129a6565b92508282101561290257612901612b09565b5b828203905092915050565b600061291882612986565b9050919050565b600061292a82612986565b9050919050565b60008115159050919050565b6000819050919050565b60007fffffffff0000000000000000000000000000000000000000000000000000000082169050919050565b600081905061298182612cfd565b919050565b600073ffffffffffffffffffffffffffffffffffffffff82169050919050565b6000819050919050565b600060ff82169050919050565b60006129c8826129e1565b9050919050565b60006129da82612973565b9050919050565b60006129ec826129f3565b9050919050565b60006129fe82612986565b9050919050565b82818337600083830152505050565b60005b83811015612a32578082015181840152602081019050612a17565b83811115612a41576000848401525b50505050565b60006002820490506001821680612a5f57607f821691505b60208210811415612a7357612a72612b96565b5b50919050565b612a8282612c08565b810181811067ffffffffffffffff82111715612aa157612aa0612bc5565b5b80604052505050565b6000612ab582612abc565b9050919050565b6000612ac782612c19565b9050919050565b6000819050919050565b6000612ae3826129a6565b9150612aee836129a6565b925082612afe57612afd612b38565b5b828206905092915050565b7f4e487b7100000000000000000000000000000000000000000000000000000000600052601160045260246000fd5b7f4e487b7100000000000000000000000000000000000000000000000000000000600052601260045260246000fd5b7f4e487b7100000000000000000000000000000000000000000000000000000000600052602160045260246000fd5b7f4e487b7100000000000000000000000000000000000000000000000000000000600052602260045260246000fd5b7f4e487b7100000000000000000000000000000000000000000000000000000000600052604160045260246000fd5b600080fd5b600080fd5b600080fd5b600080fd5b6000601f19601f8301169050919050565b60008160601b9050919050565b60008160011c9050919050565b7f756e61626c6520746f207472616e73666572416e6443616c6c20746f206f726160008201527f636c650000000000000000000000000000000000000000000000000000000000602082015250565b7f556e61626c6520746f207472616e736665720000000000000000000000000000600082015250565b50565b7f536f75726365206d75737420626520746865206f7261636c65206f662074686560008201527f2072657175657374000000000000000000000000000000000000000000000000602082015250565b60048110612d0e57612d0d612b67565b5b50565b612d1a81612931565b8114612d2557600080fd5b50565b612d318161293d565b8114612d3c57600080fd5b50565b612d48816129a6565b8114612d5357600080fd5b50565b612d5f816129b0565b8114612d6a57600080fd5b5056fea26469706673582212204754b1a25b9b27026b6ce26a28b268ae64201b49d1fc9ca059363d39e9ed8d6464736f6c63430008070033",
  "linkReferences": {},
  "deployedLinkReferences": {}
}